{"abi":[{"type":"constructor","inputs":[{"name":"routerAddress","type":"address","internalType":"address"},{"name":"adminAddr","type":"address","internalType":"address"}],"stateMutability":"payable"},{"type":"function","name":"addressConfigs","inputs":[{"name":"user","type":"address","internalType":"address"}],"outputs":[{"name":"isAutomatedMarketMakerPair","type":"bool","internalType":"bool"},{"name":"isExcludedFromMaxTx","type":"bool","internalType":"bool"},{"name":"isExcludedFromMaxHold","type":"bool","internalType":"bool"}],"stateMutability":"view"},{"type":"function","name":"allowance","inputs":[{"name":"owner","type":"address","internalType":"address"},{"name":"spender","type":"address","internalType":"address"}],"outputs":[{"name":"","type":"uint256","internalType":"uint256"}],"stateMutability":"view"},{"type":"function","name":"approve","inputs":[{"name":"spender","type":"address","internalType":"address"},{"name":"value","type":"uint256","internalType":"uint256"}],"outputs":[{"name":"","type":"bool","internalType":"bool"}],"stateMutability":"nonpayable"},{"type":"function","name":"balanceOf","inputs":[{"name":"account","type":"address","internalType":"address"}],"outputs":[{"name":"","type":"uint256","internalType":"uint256"}],"stateMutability":"view"},{"type":"function","name":"decimals","inputs":[],"outputs":[{"name":"","type":"uint8","internalType":"uint8"}],"stateMutability":"view"},{"type":"function","name":"excludeFromMaxHold","inputs":[{"name":"account","type":"address","internalType":"address"},{"name":"excluded","type":"bool","internalType":"bool"}],"outputs":[],"stateMutability":"payable"},{"type":"function","name":"excludeFromMaxTx","inputs":[{"name":"account","type":"address","internalType":"address"},{"name":"excluded","type":"bool","internalType":"bool"}],"outputs":[],"stateMutability":"payable"},{"type":"function","name":"maxHoldLimitPercent","inputs":[],"outputs":[{"name":"","type":"uint256","internalType":"uint256"}],"stateMutability":"view"},{"type":"function","name":"maxSellTransactionAmount","inputs":[],"outputs":[{"name":"","type":"uint256","internalType":"uint256"}],"stateMutability":"view"},{"type":"function","name":"name","inputs":[],"outputs":[{"name":"","type":"string","internalType":"string"}],"stateMutability":"view"},{"type":"function","name":"owner","inputs":[],"outputs":[{"name":"","type":"address","internalType":"address"}],"stateMutability":"view"},{"type":"function","name":"renounceOwnership","inputs":[],"outputs":[],"stateMutability":"nonpayable"},{"type":"function","name":"setAutomatedMarketMakerPair","inputs":[{"name":"pair","type":"address","internalType":"address"},{"name":"value","type":"bool","internalType":"bool"}],"outputs":[],"stateMutability":"nonpayable"},{"type":"function","name":"setMaxHoldLimitPercent","inputs":[{"name":"percent","type":"uint256","internalType":"uint256"}],"outputs":[],"stateMutability":"payable"},{"type":"function","name":"setMaxSellTransactionAmount","inputs":[{"name":"amount","type":"uint256","internalType":"uint256"}],"outputs":[],"stateMutability":"payable"},{"type":"function","name":"symbol","inputs":[],"outputs":[{"name":"","type":"string","internalType":"string"}],"stateMutability":"view"},{"type":"function","name":"totalSupply","inputs":[],"outputs":[{"name":"","type":"uint256","internalType":"uint256"}],"stateMutability":"view"},{"type":"function","name":"transfer","inputs":[{"name":"to","type":"address","internalType":"address"},{"name":"amount","type":"uint256","internalType":"uint256"}],"outputs":[{"name":"","type":"bool","internalType":"bool"}],"stateMutability":"nonpayable"},{"type":"function","name":"transferFrom","inputs":[{"name":"from","type":"address","internalType":"address"},{"name":"to","type":"address","internalType":"address"},{"name":"amount","type":"uint256","internalType":"uint256"}],"outputs":[{"name":"","type":"bool","internalType":"bool"}],"stateMutability":"nonpayable"},{"type":"function","name":"transferOwnership","inputs":[{"name":"newOwner","type":"address","internalType":"address"}],"outputs":[],"stateMutability":"nonpayable"},{"type":"function","name":"uniswapV2Router","inputs":[],"outputs":[{"name":"","type":"address","internalType":"contract IUniswapV2Router02"}],"stateMutability":"view"},{"type":"function","name":"withdrawETH","inputs":[],"outputs":[],"stateMutability":"nonpayable"},{"type":"function","name":"withdrawTokens","inputs":[{"name":"tokenAddress","type":"address","internalType":"address"},{"name":"amount","type":"uint256","internalType":"uint256"}],"outputs":[],"stateMutability":"payable"},{"type":"event","name":"Approval","inputs":[{"name":"owner","type":"address","indexed":true,"internalType":"address"},{"name":"spender","type":"address","indexed":true,"internalType":"address"},{"name":"value","type":"uint256","indexed":false,"internalType":"uint256"}],"anonymous":false},{"type":"event","name":"ExcludedFromMaxHold","inputs":[{"name":"account","type":"address","indexed":true,"internalType":"address"},{"name":"isExcluded","type":"bool","indexed":false,"internalType":"bool"}],"anonymous":false},{"type":"event","name":"ExcludedFromMaxTx","inputs":[{"name":"account","type":"address","indexed":true,"internalType":"address"},{"name":"isExcluded","type":"bool","indexed":false,"internalType":"bool"}],"anonymous":false},{"type":"event","name":"MaxHoldLimitUpdated","inputs":[{"name":"newLimitPercent","type":"uint256","indexed":false,"internalType":"uint256"}],"anonymous":false},{"type":"event","name":"MaxSellTransactionAmountUpdated","inputs":[{"name":"amount","type":"uint256","indexed":false,"internalType":"uint256"}],"anonymous":false},{"type":"event","name":"OwnershipTransferred","inputs":[{"name":"previousOwner","type":"address","indexed":true,"internalType":"address"},{"name":"newOwner","type":"address","indexed":true,"internalType":"address"}],"anonymous":false},{"type":"event","name":"SetAutomatedMarketMakerPair","inputs":[{"name":"pair","type":"address","indexed":true,"internalType":"address"},{"name":"value","type":"bool","indexed":true,"internalType":"bool"}],"anonymous":false},{"type":"event","name":"Transfer","inputs":[{"name":"from","type":"address","indexed":true,"internalType":"address"},{"name":"to","type":"address","indexed":true,"internalType":"address"},{"name":"value","type":"uint256","indexed":false,"internalType":"uint256"}],"anonymous":false},{"type":"event","name":"TransferInitiated","inputs":[{"name":"from","type":"address","indexed":true,"internalType":"address"},{"name":"to","type":"address","indexed":true,"internalType":"address"},{"name":"amount","type":"uint256","indexed":false,"internalType":"uint256"}],"anonymous":false},{"type":"event","name":"WithdrawETH","inputs":[{"name":"recipient","type":"address","indexed":true,"internalType":"address"},{"name":"amount","type":"uint256","indexed":false,"internalType":"uint256"}],"anonymous":false},{"type":"event","name":"WithdrawTokens","inputs":[{"name":"tokenAddress","type":"address","indexed":true,"internalType":"address"},{"name":"amount","type":"uint256","indexed":false,"internalType":"uint256"}],"anonymous":false},{"type":"error","name":"ERC20InsufficientAllowance","inputs":[{"name":"spender","type":"address","internalType":"address"},{"name":"allowance","type":"uint256","internalType":"uint256"},{"name":"needed","type":"uint256","internalType":"uint256"}]},{"type":"error","name":"ERC20InsufficientBalance","inputs":[{"name":"sender","type":"address","internalType":"address"},{"name":"balance","type":"uint256","internalType":"uint256"},{"name":"needed","type":"uint256","internalType":"uint256"}]},{"type":"error","name":"ERC20InvalidApprover","inputs":[{"name":"approver","type":"address","internalType":"address"}]},{"type":"error","name":"ERC20InvalidReceiver","inputs":[{"name":"receiver","type":"address","internalType":"address"}]},{"type":"error","name":"ERC20InvalidSender","inputs":[{"name":"sender","type":"address","internalType":"address"}]},{"type":"error","name":"ERC20InvalidSpender","inputs":[{"name":"spender","type":"address","internalType":"address"}]},{"type":"error","name":"OwnableInvalidOwner","inputs":[{"name":"owner","type":"address","internalType":"address"}]},{"type":"error","name":"OwnableUnauthorizedAccount","inputs":[{"name":"account","type":"address","internalType":"address"}]},{"type":"error","name":"ReentrancyGuardReentrantCall","inputs":[]},{"type":"error","name":"SafeERC20FailedOperation","inputs":[{"name":"token","type":"address","internalType":"address"}]}],"bytecode":{"object":"0x6080604052604051613a51380380613a5183398181016040528101906100259190610b8f565b806040518060400160405280600581526020017f43414348450000000000000000000000000000000000000000000000000000008152506040518060400160405280600581526020017f434143484500000000000000000000000000000000000000000000000000000081525081600390816100a19190610e0a565b5080600490816100b19190610e0a565b5050505f73ffffffffffffffffffffffffffffffffffffffff168173ffffffffffffffffffffffffffffffffffffffff1603610124575f6040517f1e4fbdf700000000000000000000000000000000000000000000000000000000815260040161011b9190610ee8565b60405180910390fd5b610133816104b560201b60201c565b5060016006819055505f6b033b2e3c9fd0803ce8000000905061015c828261057860201b60201c565b6a0422ca8b0a00a42500000060078190555060036008819055505f60095f8473ffffffffffffffffffffffffffffffffffffffff1673ffffffffffffffffffffffffffffffffffffffff1681526020019081526020015f206040518060600160405290815f82015f9054906101000a900460ff161515151581526020015f820160019054906101000a900460ff161515151581526020015f820160029054906101000a900460ff1615151515815250509050600181602001901515908115158152505060018160400190151590811515815250508060095f8573ffffffffffffffffffffffffffffffffffffffff1673ffffffffffffffffffffffffffffffffffffffff1681526020019081526020015f205f820151815f015f6101000a81548160ff0219169083151502179055506020820151815f0160016101000a81548160ff0219169083151502179055506040820151815f0160026101000a81548160ff0219169083151502179055509050505f84905080600a5f6101000a81548173ffffffffffffffffffffffffffffffffffffffff021916908373ffffffffffffffffffffffffffffffffffffffff1602179055505f8173ffffffffffffffffffffffffffffffffffffffff1663c45a01556040518163ffffffff1660e01b8152600401602060405180830381865afa15801561035a573d5f5f3e3d5ffd5b505050506040513d601f19601f8201168201806040525081019061037e9190610f01565b73ffffffffffffffffffffffffffffffffffffffff1663e6a43905308473ffffffffffffffffffffffffffffffffffffffff1663ad5c46486040518163ffffffff1660e01b8152600401602060405180830381865afa1580156103e3573d5f5f3e3d5ffd5b505050506040513d601f19601f820116820180604052508101906104079190610f01565b6040518363ffffffff1660e01b8152600401610424929190610f2c565b602060405180830381865afa15801561043f573d5f5f3e3d5ffd5b505050506040513d601f19601f820116820180604052508101906104639190610f01565b90505f73ffffffffffffffffffffffffffffffffffffffff168173ffffffffffffffffffffffffffffffffffffffff16146104aa576104a98160016105fd60201b60201c565b5b5050505050506110f0565b5f60055f9054906101000a900473ffffffffffffffffffffffffffffffffffffffff1690508160055f6101000a81548173ffffffffffffffffffffffffffffffffffffffff021916908373ffffffffffffffffffffffffffffffffffffffff1602179055508173ffffffffffffffffffffffffffffffffffffffff168173ffffffffffffffffffffffffffffffffffffffff167f8be0079c531659141344cd1fd0a4f28419497f9722a3daafe3b4186f6b6457e060405160405180910390a35050565b5f73ffffffffffffffffffffffffffffffffffffffff168273ffffffffffffffffffffffffffffffffffffffff16036105e8575f6040517fec442f050000000000000000000000000000000000000000000000000000000081526004016105df9190610ee8565b60405180910390fd5b6105f95f838361085060201b60201c565b5050565b61060b610a6960201b60201c565b5f73ffffffffffffffffffffffffffffffffffffffff168273ffffffffffffffffffffffffffffffffffffffff1603610679576040517f08c379a000000000000000000000000000000000000000000000000000000000815260040161067090610fad565b60405180910390fd5b5f60095f8473ffffffffffffffffffffffffffffffffffffffff1673ffffffffffffffffffffffffffffffffffffffff1681526020019081526020015f206040518060600160405290815f82015f9054906101000a900460ff161515151581526020015f820160019054906101000a900460ff161515151581526020015f820160029054906101000a900460ff1615151515815250509050811515815f015115150361075a576040517f08c379a000000000000000000000000000000000000000000000000000000000815260040161075190611015565b60405180910390fd5b81815f0190151590811515815250508060095f8573ffffffffffffffffffffffffffffffffffffffff1673ffffffffffffffffffffffffffffffffffffffff1681526020019081526020015f205f820151815f015f6101000a81548160ff0219169083151502179055506020820151815f0160016101000a81548160ff0219169083151502179055506040820151815f0160026101000a81548160ff0219169083151502179055509050508115158373ffffffffffffffffffffffffffffffffffffffff167fffa9187bf1f18bf477bd0ea1bcbb64e93b6a98132473929edfce215cd9b16fab60405160405180910390a3505050565b5f73ffffffffffffffffffffffffffffffffffffffff168373ffffffffffffffffffffffffffffffffffffffff16036108a0578060025f8282546108949190611060565b9250508190555061096e565b5f5f5f8573ffffffffffffffffffffffffffffffffffffffff1673ffffffffffffffffffffffffffffffffffffffff1681526020019081526020015f2054905081811015610929578381836040517fe450d38c000000000000000000000000000000000000000000000000000000008152600401610920939291906110a2565b60405180910390fd5b8181035f5f8673ffffffffffffffffffffffffffffffffffffffff1673ffffffffffffffffffffffffffffffffffffffff1681526020019081526020015f2081905550505b5f73ffffffffffffffffffffffffffffffffffffffff168273ffffffffffffffffffffffffffffffffffffffff16036109b5578060025f82825403925050819055506109ff565b805f5f8473ffffffffffffffffffffffffffffffffffffffff1673ffffffffffffffffffffffffffffffffffffffff1681526020019081526020015f205f82825401925050819055505b8173ffffffffffffffffffffffffffffffffffffffff168373ffffffffffffffffffffffffffffffffffffffff167fddf252ad1be2c89b69c2b068fc378daa952ba7f163c4a11628f55a4df523b3ef83604051610a5c91906110d7565b60405180910390a3505050565b610a77610b0260201b60201c565b73ffffffffffffffffffffffffffffffffffffffff16610a9b610b0960201b60201c565b73ffffffffffffffffffffffffffffffffffffffff1614610b0057610ac4610b0260201b60201c565b6040517f118cdaa7000000000000000000000000000000000000000000000000000000008152600401610af79190610ee8565b60405180910390fd5b565b5f33905090565b5f60055f9054906101000a900473ffffffffffffffffffffffffffffffffffffffff16905090565b5f5ffd5b5f73ffffffffffffffffffffffffffffffffffffffff82169050919050565b5f610b5e82610b35565b9050919050565b610b6e81610b54565b8114610b78575f5ffd5b50565b5f81519050610b8981610b65565b92915050565b5f5f60408385031215610ba557610ba4610b31565b5b5f610bb285828601610b7b565b9250506020610bc385828601610b7b565b9150509250929050565b5f81519050919050565b7f4e487b71000000000000000000000000000000000000000000000000000000005f52604160045260245ffd5b7f4e487b71000000000000000000000000000000000000000000000000000000005f52602260045260245ffd5b5f6002820490506001821680610c4857607f821691505b602082108103610c5b57610c5a610c04565b5b50919050565b5f819050815f5260205f209050919050565b5f6020601f8301049050919050565b5f82821b905092915050565b5f60088302610cbd7fffffffffffffffffffffffffffffffffffffffffffffffffffffffffffffffff82610c82565b610cc78683610c82565b95508019841693508086168417925050509392505050565b5f819050919050565b5f819050919050565b5f610d0b610d06610d0184610cdf565b610ce8565b610cdf565b9050919050565b5f819050919050565b610d2483610cf1565b610d38610d3082610d12565b848454610c8e565b825550505050565b5f5f905090565b610d4f610d40565b610d5a818484610d1b565b505050565b5b81811015610d7d57610d725f82610d47565b600181019050610d60565b5050565b601f821115610dc257610d9381610c61565b610d9c84610c73565b81016020851015610dab578190505b610dbf610db785610c73565b830182610d5f565b50505b505050565b5f82821c905092915050565b5f610de25f1984600802610dc7565b1980831691505092915050565b5f610dfa8383610dd3565b9150826002028217905092915050565b610e1382610bcd565b67ffffffffffffffff811115610e2c57610e2b610bd7565b5b610e368254610c31565b610e41828285610d81565b5f60209050601f831160018114610e72575f8415610e60578287015190505b610e6a8582610def565b865550610ed1565b601f198416610e8086610c61565b5f5b82811015610ea757848901518255600182019150602085019450602081019050610e82565b86831015610ec45784890151610ec0601f891682610dd3565b8355505b6001600288020188555050505b505050505050565b610ee281610b54565b82525050565b5f602082019050610efb5f830184610ed9565b92915050565b5f60208284031215610f1657610f15610b31565b5b5f610f2384828501610b7b565b91505092915050565b5f604082019050610f3f5f830185610ed9565b610f4c6020830184610ed9565b9392505050565b5f82825260208201905092915050565b7f43414348453a20496e76616c69642070616972206164647265737300000000005f82015250565b5f610f97601b83610f53565b9150610fa282610f63565b602082019050919050565b5f6020820190508181035f830152610fc481610f8b565b9050919050565b7f43414348453a204e6f206e65656420746f207570646174652e000000000000005f82015250565b5f610fff601983610f53565b915061100a82610fcb565b602082019050919050565b5f6020820190508181035f83015261102c81610ff3565b9050919050565b7f4e487b71000000000000000000000000000000000000000000000000000000005f52601160045260245ffd5b5f61106a82610cdf565b915061107583610cdf565b925082820190508082111561108d5761108c611033565b5b92915050565b61109c81610cdf565b82525050565b5f6060820190506110b55f830186610ed9565b6110c26020830185611093565b6110cf6040830184611093565b949350505050565b5f6020820190506110ea5f830184611093565b92915050565b612954806110fd5f395ff3fe60806040526004361061013f575f3560e01c80635914674a116100b5578063a9059cbb1161006e578063a9059cbb14610417578063d4c989d314610453578063dd62ed3e1461046f578063e086e5ec146104ab578063f2fde38b146104c1578063fb02f76f146104e95761013f565b80635914674a1461032d57806370a0823114610349578063715018a6146103855780638da5cb5b1461039b57806395d89b41146103c55780639a7a23d6146103ef5761013f565b80631694505e116101075780631694505e1461020b57806318160ddd1461023557806320731fa11461025f57806323b872dd1461029d578063313ce567146102d957806346b68c29146103035761013f565b806302259e9e1461014357806306b091f91461016d57806306fdde0314610189578063095ea7b3146101b357806316216e5f146101ef575b5f5ffd5b34801561014e575f5ffd5b50610157610505565b6040516101649190611f23565b60405180910390f35b61018760048036038101906101829190611fc4565b61050b565b005b348015610194575f5ffd5b5061019d61060e565b6040516101aa9190612072565b60405180910390f35b3480156101be575f5ffd5b506101d960048036038101906101d49190611fc4565b61069e565b6040516101e691906120ac565b60405180910390f35b610209600480360381019061020491906120c5565b6106c0565b005b348015610216575f5ffd5b5061021f61074d565b60405161022c919061214b565b60405180910390f35b348015610240575f5ffd5b50610249610772565b6040516102569190611f23565b60405180910390f35b34801561026a575f5ffd5b5061028560048036038101906102809190612164565b61077b565b6040516102949392919061218f565b60405180910390f35b3480156102a8575f5ffd5b506102c360048036038101906102be91906121c4565b6107c5565b6040516102d091906120ac565b60405180910390f35b3480156102e4575f5ffd5b506102ed61084f565b6040516102fa919061222f565b60405180910390f35b34801561030e575f5ffd5b50610317610857565b6040516103249190611f23565b60405180910390f35b610347600480360381019061034291906120c5565b61085d565b005b348015610354575f5ffd5b5061036f600480360381019061036a9190612164565b61096f565b60405161037c9190611f23565b60405180910390f35b348015610390575f5ffd5b506103996109b4565b005b3480156103a6575f5ffd5b506103af6109c7565b6040516103bc9190612257565b60405180910390f35b3480156103d0575f5ffd5b506103d96109ef565b6040516103e69190612072565b60405180910390f35b3480156103fa575f5ffd5b506104156004803603810190610410919061229a565b610a7f565b005b348015610422575f5ffd5b5061043d60048036038101906104389190611fc4565b610ccc565b60405161044a91906120ac565b60405180910390f35b61046d6004803603810190610468919061229a565b610d54565b005b34801561047a575f5ffd5b50610495600480360381019061049091906122d8565b610f3d565b6040516104a29190611f23565b60405180910390f35b3480156104b6575f5ffd5b506104bf610fbf565b005b3480156104cc575f5ffd5b506104e760048036038101906104e29190612164565b611115565b005b61050360048036038101906104fe919061229a565b611199565b005b60075481565b610513611382565b61051b611409565b5f73ffffffffffffffffffffffffffffffffffffffff168273ffffffffffffffffffffffffffffffffffffffff1603610589576040517f08c379a000000000000000000000000000000000000000000000000000000000815260040161058090612360565b60405180910390fd5b6105b433828473ffffffffffffffffffffffffffffffffffffffff1661144f9092919063ffffffff16565b8173ffffffffffffffffffffffffffffffffffffffff167f680f2e4f4032ebf1774e8cdbaddcb1b617a5a606411c8ca96257ada338d3833c826040516105fa9190611f23565b60405180910390a261060a6114ce565b5050565b60606003805461061d906123ab565b80601f0160208091040260200160405190810160405280929190818152602001828054610649906123ab565b80156106945780601f1061066b57610100808354040283529160200191610694565b820191905f5260205f20905b81548152906001019060200180831161067757829003601f168201915b5050505050905090565b5f5f6106a86114d8565b90506106b58185856114df565b600191505092915050565b6106c8611382565b806007540361070c576040517f08c379a000000000000000000000000000000000000000000000000000000000815260040161070390612425565b60405180910390fd5b806007819055507fc669dc4faa0c7b1259c5e88f5729c9c6dd69e8a5ba186a73b6e51e64419499d5816040516107429190611f23565b60405180910390a150565b600a5f9054906101000a900473ffffffffffffffffffffffffffffffffffffffff1681565b5f600254905090565b6009602052805f5260405f205f91509050805f015f9054906101000a900460ff1690805f0160019054906101000a900460ff1690805f0160029054906101000a900460ff16905083565b5f6107d18484846114f1565b5f6107dd8585856117f2565b90508373ffffffffffffffffffffffffffffffffffffffff168573ffffffffffffffffffffffffffffffffffffffff167f0cb34e106629dce34b632826bbba6b38e39c5957eb06a27e76efcc3d55da46b58560405161083c9190611f23565b60405180910390a3809150509392505050565b5f6012905090565b60085481565b610865611382565b80600854036108a9576040517f08c379a00000000000000000000000000000000000000000000000000000000081526004016108a090612425565b60405180910390fd5b5f81036108eb576040517f08c379a00000000000000000000000000000000000000000000000000000000081526004016108e29061248d565b60405180910390fd5b6065811061092e576040517f08c379a00000000000000000000000000000000000000000000000000000000081526004016109259061248d565b60405180910390fd5b806008819055507f7bc99b6bda1e3755210e9f2c14ba054c8663d478fcde4a789037ede248a562ee816040516109649190611f23565b60405180910390a150565b5f5f5f8373ffffffffffffffffffffffffffffffffffffffff1673ffffffffffffffffffffffffffffffffffffffff1681526020019081526020015f20549050919050565b6109bc611382565b6109c55f611820565b565b5f60055f9054906101000a900473ffffffffffffffffffffffffffffffffffffffff16905090565b6060600480546109fe906123ab565b80601f0160208091040260200160405190810160405280929190818152602001828054610a2a906123ab565b8015610a755780601f10610a4c57610100808354040283529160200191610a75565b820191905f5260205f20905b815481529060010190602001808311610a5857829003601f168201915b5050505050905090565b610a87611382565b5f73ffffffffffffffffffffffffffffffffffffffff168273ffffffffffffffffffffffffffffffffffffffff1603610af5576040517f08c379a0000000000000000000000000000000000000000000000000000000008152600401610aec906124f5565b60405180910390fd5b5f60095f8473ffffffffffffffffffffffffffffffffffffffff1673ffffffffffffffffffffffffffffffffffffffff1681526020019081526020015f206040518060600160405290815f82015f9054906101000a900460ff161515151581526020015f820160019054906101000a900460ff161515151581526020015f820160029054906101000a900460ff1615151515815250509050811515815f0151151503610bd6576040517f08c379a0000000000000000000000000000000000000000000000000000000008152600401610bcd90612425565b60405180910390fd5b81815f0190151590811515815250508060095f8573ffffffffffffffffffffffffffffffffffffffff1673ffffffffffffffffffffffffffffffffffffffff1681526020019081526020015f205f820151815f015f6101000a81548160ff0219169083151502179055506020820151815f0160016101000a81548160ff0219169083151502179055506040820151815f0160026101000a81548160ff0219169083151502179055509050508115158373ffffffffffffffffffffffffffffffffffffffff167fffa9187bf1f18bf477bd0ea1bcbb64e93b6a98132473929edfce215cd9b16fab60405160405180910390a3505050565b5f610cd83384846114f1565b5f610ce384846118e3565b90508373ffffffffffffffffffffffffffffffffffffffff163373ffffffffffffffffffffffffffffffffffffffff167f0cb34e106629dce34b632826bbba6b38e39c5957eb06a27e76efcc3d55da46b585604051610d429190611f23565b60405180910390a38091505092915050565b610d5c611382565b5f60095f8473ffffffffffffffffffffffffffffffffffffffff1673ffffffffffffffffffffffffffffffffffffffff1681526020019081526020015f206040518060600160405290815f82015f9054906101000a900460ff161515151581526020015f820160019054906101000a900460ff161515151581526020015f820160029054906101000a900460ff16151515158152505090508115158160200151151503610e3e576040517f08c379a0000000000000000000000000000000000000000000000000000000008152600401610e3590612425565b60405180910390fd5b818160200190151590811515815250508060095f8573ffffffffffffffffffffffffffffffffffffffff1673ffffffffffffffffffffffffffffffffffffffff1681526020019081526020015f205f820151815f015f6101000a81548160ff0219169083151502179055506020820151815f0160016101000a81548160ff0219169083151502179055506040820151815f0160026101000a81548160ff0219169083151502179055509050508273ffffffffffffffffffffffffffffffffffffffff167f77a0fec448da1c340eddbf781d9ff0520a78d5a35fd142eaaec4e04a81157a0f83604051610f3091906120ac565b60405180910390a2505050565b5f60015f8473ffffffffffffffffffffffffffffffffffffffff1673ffffffffffffffffffffffffffffffffffffffff1681526020019081526020015f205f8373ffffffffffffffffffffffffffffffffffffffff1673ffffffffffffffffffffffffffffffffffffffff1681526020019081526020015f2054905092915050565b610fc7611382565b5f4790505f811161100d576040517f08c379a00000000000000000000000000000000000000000000000000000000081526004016110049061255d565b60405180910390fd5b5f6110166109c7565b73ffffffffffffffffffffffffffffffffffffffff1682604051611039906125a8565b5f6040518083038185875af1925050503d805f8114611073576040519150601f19603f3d011682016040523d82523d5f602084013e611078565b606091505b50509050806110bc576040517f08c379a00000000000000000000000000000000000000000000000000000000081526004016110b390612606565b60405180910390fd5b6110c46109c7565b73ffffffffffffffffffffffffffffffffffffffff167f566e45b1c8057e725bf62796a7f1d37ae294393cab069725a09daddd1af98b79836040516111099190611f23565b60405180910390a25050565b61111d611382565b5f73ffffffffffffffffffffffffffffffffffffffff168173ffffffffffffffffffffffffffffffffffffffff160361118d575f6040517f1e4fbdf70000000000000000000000000000000000000000000000000000000081526004016111849190612257565b60405180910390fd5b61119681611820565b50565b6111a1611382565b5f60095f8473ffffffffffffffffffffffffffffffffffffffff1673ffffffffffffffffffffffffffffffffffffffff1681526020019081526020015f206040518060600160405290815f82015f9054906101000a900460ff161515151581526020015f820160019054906101000a900460ff161515151581526020015f820160029054906101000a900460ff16151515158152505090508115158160400151151503611283576040517f08c379a000000000000000000000000000000000000000000000000000000000815260040161127a90612425565b60405180910390fd5b818160400190151590811515815250508060095f8573ffffffffffffffffffffffffffffffffffffffff1673ffffffffffffffffffffffffffffffffffffffff1681526020019081526020015f205f820151815f015f6101000a81548160ff0219169083151502179055506020820151815f0160016101000a81548160ff0219169083151502179055506040820151815f0160026101000a81548160ff0219169083151502179055509050508273ffffffffffffffffffffffffffffffffffffffff167f9b0c87d337f559d0bd4c9d37715b208bed401868a9535b028a310c5efded8be58360405161137591906120ac565b60405180910390a2505050565b61138a6114d8565b73ffffffffffffffffffffffffffffffffffffffff166113a86109c7565b73ffffffffffffffffffffffffffffffffffffffff1614611407576113cb6114d8565b6040517f118cdaa70000000000000000000000000000000000000000000000000000000081526004016113fe9190612257565b60405180910390fd5b565b600260065403611445576040517f3ee5aeb500000000000000000000000000000000000000000000000000000000815260040160405180910390fd5b6002600681905550565b6114c9838473ffffffffffffffffffffffffffffffffffffffff1663a9059cbb8585604051602401611482929190612624565b604051602081830303815290604052915060e01b6020820180517bffffffffffffffffffffffffffffffffffffffffffffffffffffffff8381831617835250505050611905565b505050565b6001600681905550565b5f33905090565b6114ec83838360016119a0565b505050565b5f73ffffffffffffffffffffffffffffffffffffffff168373ffffffffffffffffffffffffffffffffffffffff160361155f576040517f08c379a000000000000000000000000000000000000000000000000000000000815260040161155690612695565b60405180910390fd5b5f73ffffffffffffffffffffffffffffffffffffffff168273ffffffffffffffffffffffffffffffffffffffff16036115cd576040517f08c379a00000000000000000000000000000000000000000000000000000000081526004016115c4906126fd565b60405180910390fd5b5f60095f8573ffffffffffffffffffffffffffffffffffffffff1673ffffffffffffffffffffffffffffffffffffffff1681526020019081526020015f206040518060600160405290815f82015f9054906101000a900460ff161515151581526020015f820160019054906101000a900460ff161515151581526020015f820160029054906101000a900460ff16151515158152505090505f60095f8573ffffffffffffffffffffffffffffffffffffffff1673ffffffffffffffffffffffffffffffffffffffff1681526020019081526020015f206040518060600160405290815f82015f9054906101000a900460ff161515151581526020015f820160019054906101000a900460ff161515151581526020015f820160029054906101000a900460ff1615151515815250509050816020015115801561171157508060200151155b1561176657805f01511561176557600754831115611764576040517f08c379a000000000000000000000000000000000000000000000000000000000815260040161175b90612765565b60405180910390fd5b5b5b80604001516117eb575f606460085461177d610772565b61178791906127b0565b611791919061281e565b9050808461179e8761096f565b6117a8919061284e565b11156117e9576040517f08c379a00000000000000000000000000000000000000000000000000000000081526004016117e0906128cb565b60405180910390fd5b505b5050505050565b5f5f6117fc6114d8565b9050611809858285611b6f565b611814858585611c02565b60019150509392505050565b5f60055f9054906101000a900473ffffffffffffffffffffffffffffffffffffffff1690508160055f6101000a81548173ffffffffffffffffffffffffffffffffffffffff021916908373ffffffffffffffffffffffffffffffffffffffff1602179055508173ffffffffffffffffffffffffffffffffffffffff168173ffffffffffffffffffffffffffffffffffffffff167f8be0079c531659141344cd1fd0a4f28419497f9722a3daafe3b4186f6b6457e060405160405180910390a35050565b5f5f6118ed6114d8565b90506118fa818585611c02565b600191505092915050565b5f5f60205f8451602086015f885af180611924576040513d5f823e3d81fd5b3d92505f519150505f821461193d576001811415611958565b5f8473ffffffffffffffffffffffffffffffffffffffff163b145b1561199a57836040517f5274afe70000000000000000000000000000000000000000000000000000000081526004016119919190612257565b60405180910390fd5b50505050565b5f73ffffffffffffffffffffffffffffffffffffffff168473ffffffffffffffffffffffffffffffffffffffff1603611a10575f6040517fe602df05000000000000000000000000000000000000000000000000000000008152600401611a079190612257565b60405180910390fd5b5f73ffffffffffffffffffffffffffffffffffffffff168373ffffffffffffffffffffffffffffffffffffffff1603611a80575f6040517f94280d62000000000000000000000000000000000000000000000000000000008152600401611a779190612257565b60405180910390fd5b8160015f8673ffffffffffffffffffffffffffffffffffffffff1673ffffffffffffffffffffffffffffffffffffffff1681526020019081526020015f205f8573ffffffffffffffffffffffffffffffffffffffff1673ffffffffffffffffffffffffffffffffffffffff1681526020019081526020015f20819055508015611b69578273ffffffffffffffffffffffffffffffffffffffff168473ffffffffffffffffffffffffffffffffffffffff167f8c5be1e5ebec7d5bd14f71427d1e84f3dd0314c0f7b2291e5b200ac8c7c3b92584604051611b609190611f23565b60405180910390a35b50505050565b5f611b7a8484610f3d565b90507fffffffffffffffffffffffffffffffffffffffffffffffffffffffffffffffff811015611bfc5781811015611bed578281836040517ffb8f41b2000000000000000000000000000000000000000000000000000000008152600401611be4939291906128e9565b60405180910390fd5b611bfb84848484035f6119a0565b5b50505050565b5f73ffffffffffffffffffffffffffffffffffffffff168373ffffffffffffffffffffffffffffffffffffffff1603611c72575f6040517f96c6fd1e000000000000000000000000000000000000000000000000000000008152600401611c699190612257565b60405180910390fd5b5f73ffffffffffffffffffffffffffffffffffffffff168273ffffffffffffffffffffffffffffffffffffffff1603611ce2575f6040517fec442f05000000000000000000000000000000000000000000000000000000008152600401611cd99190612257565b60405180910390fd5b611ced838383611cf2565b505050565b5f73ffffffffffffffffffffffffffffffffffffffff168373ffffffffffffffffffffffffffffffffffffffff1603611d42578060025f828254611d36919061284e565b92505081905550611e10565b5f5f5f8573ffffffffffffffffffffffffffffffffffffffff1673ffffffffffffffffffffffffffffffffffffffff1681526020019081526020015f2054905081811015611dcb578381836040517fe450d38c000000000000000000000000000000000000000000000000000000008152600401611dc2939291906128e9565b60405180910390fd5b8181035f5f8673ffffffffffffffffffffffffffffffffffffffff1673ffffffffffffffffffffffffffffffffffffffff1681526020019081526020015f2081905550505b5f73ffffffffffffffffffffffffffffffffffffffff168273ffffffffffffffffffffffffffffffffffffffff1603611e57578060025f8282540392505081905550611ea1565b805f5f8473ffffffffffffffffffffffffffffffffffffffff1673ffffffffffffffffffffffffffffffffffffffff1681526020019081526020015f205f82825401925050819055505b8173ffffffffffffffffffffffffffffffffffffffff168373ffffffffffffffffffffffffffffffffffffffff167fddf252ad1be2c89b69c2b068fc378daa952ba7f163c4a11628f55a4df523b3ef83604051611efe9190611f23565b60405180910390a3505050565b5f819050919050565b611f1d81611f0b565b82525050565b5f602082019050611f365f830184611f14565b92915050565b5f5ffd5b5f73ffffffffffffffffffffffffffffffffffffffff82169050919050565b5f611f6982611f40565b9050919050565b611f7981611f5f565b8114611f83575f5ffd5b50565b5f81359050611f9481611f70565b92915050565b611fa381611f0b565b8114611fad575f5ffd5b50565b5f81359050611fbe81611f9a565b92915050565b5f5f60408385031215611fda57611fd9611f3c565b5b5f611fe785828601611f86565b9250506020611ff885828601611fb0565b9150509250929050565b5f81519050919050565b5f82825260208201905092915050565b8281835e5f83830152505050565b5f601f19601f8301169050919050565b5f61204482612002565b61204e818561200c565b935061205e81856020860161201c565b6120678161202a565b840191505092915050565b5f6020820190508181035f83015261208a818461203a565b905092915050565b5f8115159050919050565b6120a681612092565b82525050565b5f6020820190506120bf5f83018461209d565b92915050565b5f602082840312156120da576120d9611f3c565b5b5f6120e784828501611fb0565b91505092915050565b5f819050919050565b5f61211361210e61210984611f40565b6120f0565b611f40565b9050919050565b5f612124826120f9565b9050919050565b5f6121358261211a565b9050919050565b6121458161212b565b82525050565b5f60208201905061215e5f83018461213c565b92915050565b5f6020828403121561217957612178611f3c565b5b5f61218684828501611f86565b91505092915050565b5f6060820190506121a25f83018661209d565b6121af602083018561209d565b6121bc604083018461209d565b949350505050565b5f5f5f606084860312156121db576121da611f3c565b5b5f6121e886828701611f86565b93505060206121f986828701611f86565b925050604061220a86828701611fb0565b9150509250925092565b5f60ff82169050919050565b61222981612214565b82525050565b5f6020820190506122425f830184612220565b92915050565b61225181611f5f565b82525050565b5f60208201905061226a5f830184612248565b92915050565b61227981612092565b8114612283575f5ffd5b50565b5f8135905061229481612270565b92915050565b5f5f604083850312156122b0576122af611f3c565b5b5f6122bd85828601611f86565b92505060206122ce85828601612286565b9150509250929050565b5f5f604083850312156122ee576122ed611f3c565b5b5f6122fb85828601611f86565b925050602061230c85828601611f86565b9150509250929050565b7f43414348453a20496e76616c696420746f6b656e2061646472657373000000005f82015250565b5f61234a601c8361200c565b915061235582612316565b602082019050919050565b5f6020820190508181035f8301526123778161233e565b9050919050565b7f4e487b71000000000000000000000000000000000000000000000000000000005f52602260045260245ffd5b5f60028204905060018216806123c257607f821691505b6020821081036123d5576123d461237e565b5b50919050565b7f43414348453a204e6f206e65656420746f207570646174652e000000000000005f82015250565b5f61240f60198361200c565b915061241a826123db565b602082019050919050565b5f6020820190508181035f83015261243c81612403565b9050919050565b7f43414348453a204d617820686f6c64206c696d6974206572726f7200000000005f82015250565b5f612477601b8361200c565b915061248282612443565b602082019050919050565b5f6020820190508181035f8301526124a48161246b565b9050919050565b7f43414348453a20496e76616c69642070616972206164647265737300000000005f82015250565b5f6124df601b8361200c565b91506124ea826124ab565b602082019050919050565b5f6020820190508181035f83015261250c816124d3565b9050919050565b7f4e6f2066756e647320746f2077697468647261770000000000000000000000005f82015250565b5f61254760148361200c565b915061255282612513565b602082019050919050565b5f6020820190508181035f8301526125748161253b565b9050919050565b5f81905092915050565b50565b5f6125935f8361257b565b915061259e82612585565b5f82019050919050565b5f6125b282612588565b9150819050919050565b7f455448207769746864726177616c206661696c656400000000000000000000005f82015250565b5f6125f060158361200c565b91506125fb826125bc565b602082019050919050565b5f6020820190508181035f83015261261d816125e4565b9050919050565b5f6040820190506126375f830185612248565b6126446020830184611f14565b9392505050565b7f45524332303a207472616e736665722066726f6d207a65726f206164647200005f82015250565b5f61267f601e8361200c565b915061268a8261264b565b602082019050919050565b5f6020820190508181035f8301526126ac81612673565b9050919050565b7f45524332303a207472616e7366657220746f207a65726f2061646472000000005f82015250565b5f6126e7601c8361200c565b91506126f2826126b3565b602082019050919050565b5f6020820190508181035f830152612714816126db565b9050919050565b7f43414348453a2053656c6c20616d6f756e7420657863656564730000000000005f82015250565b5f61274f601a8361200c565b915061275a8261271b565b602082019050919050565b5f6020820190508181035f83015261277c81612743565b9050919050565b7f4e487b71000000000000000000000000000000000000000000000000000000005f52601160045260245ffd5b5f6127ba82611f0b565b91506127c583611f0b565b92508282026127d381611f0b565b915082820484148315176127ea576127e9612783565b5b5092915050565b7f4e487b71000000000000000000000000000000000000000000000000000000005f52601260045260245ffd5b5f61282882611f0b565b915061283383611f0b565b925082612843576128426127f1565b5b828204905092915050565b5f61285882611f0b565b915061286383611f0b565b925082820190508082111561287b5761287a612783565b5b92915050565b7f43414348453a20486f6c6420616d6f756e7420657863656564730000000000005f82015250565b5f6128b5601a8361200c565b91506128c082612881565b602082019050919050565b5f6020820190508181035f8301526128e2816128a9565b9050919050565b5f6060820190506128fc5f830186612248565b6129096020830185611f14565b6129166040830184611f14565b94935050505056fea264697066735822122045e21975e8319d309d84188e8bf696ceb5824e41048a730796c9795a6fc4f18964736f6c634300081c0033","linkReferences":{}},"methodIdentifiers":{"addressConfigs(address)":"20731fa1","allowance(address,address)":"dd62ed3e","approve(address,uint256)":"095ea7b3","balanceOf(address)":"70a08231","decimals()":"313ce567","excludeFromMaxHold(address,bool)":"fb02f76f","excludeFromMaxTx(address,bool)":"d4c989d3","maxHoldLimitPercent()":"46b68c29","maxSellTransactionAmount()":"02259e9e","name()":"06fdde03","owner()":"8da5cb5b","renounceOwnership()":"715018a6","setAutomatedMarketMakerPair(address,bool)":"9a7a23d6","setMaxHoldLimitPercent(uint256)":"5914674a","setMaxSellTransactionAmount(uint256)":"16216e5f","symbol()":"95d89b41","totalSupply()":"18160ddd","transfer(address,uint256)":"a9059cbb","transferFrom(address,address,uint256)":"23b872dd","transferOwnership(address)":"f2fde38b","uniswapV2Router()":"1694505e","withdrawETH()":"e086e5ec","withdrawTokens(address,uint256)":"06b091f9"},"id":1}