{"abi":[{"type":"constructor","inputs":[{"name":"_saleToken","type":"address","internalType":"address"},{"name":"_marketingWallet","type":"address","internalType":"address"},{"name":"_tokensPerUnit","type":"uint256","internalType":"uint256"}],"stateMutability":"payable"},{"type":"receive","stateMutability":"payable"},{"type":"function","name":"collectSaleFunds","inputs":[],"outputs":[],"stateMutability":"payable"},{"type":"function","name":"marketingWallet","inputs":[],"outputs":[{"name":"","type":"address","internalType":"address"}],"stateMutability":"view"},{"type":"function","name":"owner","inputs":[],"outputs":[{"name":"","type":"address","internalType":"address"}],"stateMutability":"view"},{"type":"function","name":"removeWrongTokens","inputs":[{"name":"token_","type":"address","internalType":"address"}],"outputs":[],"stateMutability":"payable"},{"type":"function","name":"renounceOwnership","inputs":[],"outputs":[],"stateMutability":"nonpayable"},{"type":"function","name":"returnUnusedTokens","inputs":[],"outputs":[],"stateMutability":"payable"},{"type":"function","name":"saleToken","inputs":[],"outputs":[{"name":"","type":"address","internalType":"address"}],"stateMutability":"view"},{"type":"function","name":"tokensPerUnit","inputs":[],"outputs":[{"name":"","type":"uint256","internalType":"uint256"}],"stateMutability":"view"},{"type":"function","name":"transferOwnership","inputs":[{"name":"newOwner","type":"address","internalType":"address"}],"outputs":[],"stateMutability":"nonpayable"},{"type":"function","name":"updateMarketingWallet","inputs":[{"name":"_marketingWallet","type":"address","internalType":"address"}],"outputs":[],"stateMutability":"payable"},{"type":"function","name":"updateSaleToken","inputs":[{"name":"_saleToken","type":"address","internalType":"address"}],"outputs":[],"stateMutability":"payable"},{"type":"function","name":"updateTokensPerUnit","inputs":[{"name":"_tokensPerUnit","type":"uint256","internalType":"uint256"}],"outputs":[],"stateMutability":"payable"},{"type":"function","name":"userContribution","inputs":[{"name":"","type":"address","internalType":"address"}],"outputs":[{"name":"","type":"uint256","internalType":"uint256"}],"stateMutability":"view"},{"type":"event","name":"ContributionProcessed","inputs":[{"name":"contributor","type":"address","indexed":true,"internalType":"address"},{"name":"amount","type":"uint256","indexed":false,"internalType":"uint256"},{"name":"tokensSent","type":"uint256","indexed":false,"internalType":"uint256"}],"anonymous":false},{"type":"event","name":"FundsCollected","inputs":[{"name":"amount","type":"uint256","indexed":false,"internalType":"uint256"}],"anonymous":false},{"type":"event","name":"MarketingWalletUpdated","inputs":[{"name":"oldWallet","type":"address","indexed":true,"internalType":"address"},{"name":"newWallet","type":"address","indexed":true,"internalType":"address"}],"anonymous":false},{"type":"event","name":"OwnershipTransferred","inputs":[{"name":"previousOwner","type":"address","indexed":true,"internalType":"address"},{"name":"newOwner","type":"address","indexed":true,"internalType":"address"}],"anonymous":false},{"type":"event","name":"RemoveWrongTokens","inputs":[{"name":"token","type":"address","indexed":true,"internalType":"address"}],"anonymous":false},{"type":"event","name":"SaleTokenUpdated","inputs":[{"name":"oldToken","type":"address","indexed":true,"internalType":"address"},{"name":"newToken","type":"address","indexed":true,"internalType":"address"}],"anonymous":false},{"type":"event","name":"TokensPerUnitUpdated","inputs":[{"name":"oldRate","type":"uint256","indexed":false,"internalType":"uint256"},{"name":"newRate","type":"uint256","indexed":false,"internalType":"uint256"}],"anonymous":false},{"type":"event","name":"UnusedTokensReturned","inputs":[{"name":"amount","type":"uint256","indexed":false,"internalType":"uint256"}],"anonymous":false},{"type":"error","name":"OwnableInvalidOwner","inputs":[{"name":"owner","type":"address","internalType":"address"}]},{"type":"error","name":"OwnableUnauthorizedAccount","inputs":[{"name":"account","type":"address","internalType":"address"}]},{"type":"error","name":"SafeERC20FailedOperation","inputs":[{"name":"token","type":"address","internalType":"address"}]}],"bytecode":{"object":"0x6080604052604051611e05380380611e05833981810160405281019061002591906103a5565b335f73ffffffffffffffffffffffffffffffffffffffff168173ffffffffffffffffffffffffffffffffffffffff1603610096575f6040517f1e4fbdf700000000000000000000000000000000000000000000000000000000815260040161008d9190610404565b60405180910390fd5b6100a58161025360201b60201c565b505f73ffffffffffffffffffffffffffffffffffffffff168373ffffffffffffffffffffffffffffffffffffffff1603610114576040517f08c379a000000000000000000000000000000000000000000000000000000000815260040161010b90610477565b60405180910390fd5b5f73ffffffffffffffffffffffffffffffffffffffff168273ffffffffffffffffffffffffffffffffffffffff1603610182576040517f08c379a0000000000000000000000000000000000000000000000000000000008152600401610179906104df565b60405180910390fd5b5f81036101c4576040517f08c379a00000000000000000000000000000000000000000000000000000000081526004016101bb90610547565b60405180910390fd5b8260015f6101000a81548173ffffffffffffffffffffffffffffffffffffffff021916908373ffffffffffffffffffffffffffffffffffffffff1602179055508160025f6101000a81548173ffffffffffffffffffffffffffffffffffffffff021916908373ffffffffffffffffffffffffffffffffffffffff16021790555080600381905550505050610565565b5f5f5f9054906101000a900473ffffffffffffffffffffffffffffffffffffffff169050815f5f6101000a81548173ffffffffffffffffffffffffffffffffffffffff021916908373ffffffffffffffffffffffffffffffffffffffff1602179055508173ffffffffffffffffffffffffffffffffffffffff168173ffffffffffffffffffffffffffffffffffffffff167f8be0079c531659141344cd1fd0a4f28419497f9722a3daafe3b4186f6b6457e060405160405180910390a35050565b5f5ffd5b5f73ffffffffffffffffffffffffffffffffffffffff82169050919050565b5f61034182610318565b9050919050565b61035181610337565b811461035b575f5ffd5b50565b5f8151905061036c81610348565b92915050565b5f819050919050565b61038481610372565b811461038e575f5ffd5b50565b5f8151905061039f8161037b565b92915050565b5f5f5f606084860312156103bc576103bb610314565b5b5f6103c98682870161035e565b93505060206103da8682870161035e565b92505060406103eb86828701610391565b9150509250925092565b6103fe81610337565b82525050565b5f6020820190506104175f8301846103f5565b92915050565b5f82825260208201905092915050565b7f50726573616c653a20496e76616c69642073616c65546f6b656e2061646472005f82015250565b5f610461601f8361041d565b915061046c8261042d565b602082019050919050565b5f6020820190508181035f83015261048e81610455565b9050919050565b7f50726573616c653a20496e76616c6964206d61726b6574696e672061646472005f82015250565b5f6104c9601f8361041d565b91506104d482610495565b602082019050919050565b5f6020820190508181035f8301526104f6816104bd565b9050919050565b7f50726573616c653a20746f6b656e73506572556e6974206572720000000000005f82015250565b5f610531601a8361041d565b915061053c826104fd565b602082019050919050565b5f6020820190508181035f83015261055e81610525565b9050919050565b611893806105725f395ff3fe6080604052600436106100c5575f3560e01c80639415120d1161007e578063e985e36711610058578063e985e3671461025e578063ed6ff01b14610288578063f2fde38b14610292578063f8d28768146102ba5761013a565b80639415120d1461020a578063aacebbe314610226578063d06c9a7e146102425761013a565b806316ad06721461013e5780632a8755ef1461017a57806354d6a3b814610196578063715018a6146101a057806375f0a874146101b65780638da5cb5b146101e05761013a565b3661013a576100d433346102e4565b60025f9054906101000a900473ffffffffffffffffffffffffffffffffffffffff1673ffffffffffffffffffffffffffffffffffffffff166108fc4790811502906040515f60405180830381858888f19350505050158015610138573d5f5f3e3d5ffd5b005b5f5ffd5b348015610149575f5ffd5b50610164600480360381019061015f9190611178565b610516565b60405161017191906111bb565b60405180910390f35b610194600480360381019061018f9190611178565b61052b565b005b61019e6106ee565b005b3480156101ab575f5ffd5b506101b461085a565b005b3480156101c1575f5ffd5b506101ca61086d565b6040516101d791906111e3565b60405180910390f35b3480156101eb575f5ffd5b506101f4610892565b60405161020191906111e3565b60405180910390f35b610224600480360381019061021f9190611178565b6108b9565b005b610240600480360381019061023b9190611178565b610a7f565b005b61025c60048036038101906102579190611226565b610c42565b005b348015610269575f5ffd5b50610272610d15565b60405161027f91906111e3565b60405180910390f35b610290610d3a565b005b34801561029d575f5ffd5b506102b860048036038101906102b39190611178565b610e27565b005b3480156102c5575f5ffd5b506102ce610eab565b6040516102db91906111bb565b60405180910390f35b5f8103610326576040517f08c379a000000000000000000000000000000000000000000000000000000000815260040161031d906112ab565b60405180910390fd5b5f6003548261033591906112f6565b90505f60015f9054906101000a900473ffffffffffffffffffffffffffffffffffffffff1673ffffffffffffffffffffffffffffffffffffffff166370a08231306040518263ffffffff1660e01b815260040161039291906111e3565b602060405180830381865afa1580156103ad573d5f5f3e3d5ffd5b505050506040513d601f19601f820116820180604052508101906103d1919061134b565b90506001816103e09190611376565b8210610421576040517f08c379a000000000000000000000000000000000000000000000000000000000815260040161041890611419565b60405180910390fd5b61046d848360015f9054906101000a900473ffffffffffffffffffffffffffffffffffffffff1673ffffffffffffffffffffffffffffffffffffffff16610eb19092919063ffffffff16565b8260045f8673ffffffffffffffffffffffffffffffffffffffff1673ffffffffffffffffffffffffffffffffffffffff1681526020019081526020015f205f8282546104b99190611376565b925050819055508373ffffffffffffffffffffffffffffffffffffffff167f79f0338130b6cc5da11eb417075c77d404ae07e0cf16db0019461b0a7085af028484604051610508929190611437565b60405180910390a250505050565b6004602052805f5260405f205f915090505481565b610533610f30565b5f73ffffffffffffffffffffffffffffffffffffffff168173ffffffffffffffffffffffffffffffffffffffff16036105a1576040517f08c379a0000000000000000000000000000000000000000000000000000000008152600401610598906114ce565b60405180910390fd5b60015f9054906101000a900473ffffffffffffffffffffffffffffffffffffffff1673ffffffffffffffffffffffffffffffffffffffff168173ffffffffffffffffffffffffffffffffffffffff1603610630576040517f08c379a000000000000000000000000000000000000000000000000000000000815260040161062790611536565b60405180910390fd5b8073ffffffffffffffffffffffffffffffffffffffff1660015f9054906101000a900473ffffffffffffffffffffffffffffffffffffffff1673ffffffffffffffffffffffffffffffffffffffff167faefb3e4ddbae29858dfda1355b4ea53fc60a09a61a50d60261f0d78e6fa134ff60405160405180910390a38060015f6101000a81548173ffffffffffffffffffffffffffffffffffffffff021916908373ffffffffffffffffffffffffffffffffffffffff16021790555050565b6106f6610f30565b5f60015f9054906101000a900473ffffffffffffffffffffffffffffffffffffffff1673ffffffffffffffffffffffffffffffffffffffff166370a08231306040518263ffffffff1660e01b815260040161075191906111e3565b602060405180830381865afa15801561076c573d5f5f3e3d5ffd5b505050506040513d601f19601f82011682018060405250810190610790919061134b565b90505f81036107d4576040517f08c379a00000000000000000000000000000000000000000000000000000000081526004016107cb906115c4565b60405180910390fd5b610820338260015f9054906101000a900473ffffffffffffffffffffffffffffffffffffffff1673ffffffffffffffffffffffffffffffffffffffff16610eb19092919063ffffffff16565b7fbd8b1f60b779de2f397f77628ea16ce0d7a861886145b9bc35b7424839ebdb0d8160405161084f91906111bb565b60405180910390a150565b610862610f30565b61086b5f610fb7565b565b60025f9054906101000a900473ffffffffffffffffffffffffffffffffffffffff1681565b5f5f5f9054906101000a900473ffffffffffffffffffffffffffffffffffffffff16905090565b6108c1610f30565b60015f9054906101000a900473ffffffffffffffffffffffffffffffffffffffff1673ffffffffffffffffffffffffffffffffffffffff168173ffffffffffffffffffffffffffffffffffffffff1603610950576040517f08c379a000000000000000000000000000000000000000000000000000000000815260040161094790611652565b60405180910390fd5b5f8173ffffffffffffffffffffffffffffffffffffffff166370a08231306040518263ffffffff1660e01b815260040161098a91906111e3565b602060405180830381865afa1580156109a5573d5f5f3e3d5ffd5b505050506040513d601f19601f820116820180604052508101906109c9919061134b565b90505f8103610a0d576040517f08c379a0000000000000000000000000000000000000000000000000000000008152600401610a04906116ba565b60405180910390fd5b610a3833828473ffffffffffffffffffffffffffffffffffffffff16610eb19092919063ffffffff16565b8173ffffffffffffffffffffffffffffffffffffffff167f43d9310b82adc12339f2a225ba1f130440faf9cca826a6ea1e2b13fbcbabc34160405160405180910390a25050565b610a87610f30565b5f73ffffffffffffffffffffffffffffffffffffffff168173ffffffffffffffffffffffffffffffffffffffff1603610af5576040517f08c379a0000000000000000000000000000000000000000000000000000000008152600401610aec90611748565b60405180910390fd5b60025f9054906101000a900473ffffffffffffffffffffffffffffffffffffffff1673ffffffffffffffffffffffffffffffffffffffff168173ffffffffffffffffffffffffffffffffffffffff1603610b84576040517f08c379a0000000000000000000000000000000000000000000000000000000008152600401610b7b90611536565b60405180910390fd5b8073ffffffffffffffffffffffffffffffffffffffff1660025f9054906101000a900473ffffffffffffffffffffffffffffffffffffffff1673ffffffffffffffffffffffffffffffffffffffff167f8616c7a330e3cf61290821331585511f1e2778171e2b005fb5ec60cfe874dc6760405160405180910390a38060025f6101000a81548173ffffffffffffffffffffffffffffffffffffffff021916908373ffffffffffffffffffffffffffffffffffffffff16021790555050565b610c4a610f30565b5f8103610c8c576040517f08c379a0000000000000000000000000000000000000000000000000000000008152600401610c83906117b0565b60405180910390fd5b6003548103610cd0576040517f08c379a0000000000000000000000000000000000000000000000000000000008152600401610cc790611536565b60405180910390fd5b7ff0f642e08be877441ce241f624d5cb16e80a6ea614ed288fbcb1f46f93add68f60035482604051610d03929190611437565b60405180910390a18060038190555050565b60015f9054906101000a900473ffffffffffffffffffffffffffffffffffffffff1681565b610d42610f30565b5f4790505f8103610d88576040517f08c379a0000000000000000000000000000000000000000000000000000000008152600401610d7f90611818565b60405180910390fd5b60025f9054906101000a900473ffffffffffffffffffffffffffffffffffffffff1673ffffffffffffffffffffffffffffffffffffffff166108fc8290811502906040515f60405180830381858888f19350505050158015610dec573d5f5f3e3d5ffd5b507fbf85118cce0849f521f8513cd00c57aca62dfb2eaed73851d37a1367379cfa9581604051610e1c91906111bb565b60405180910390a150565b610e2f610f30565b5f73ffffffffffffffffffffffffffffffffffffffff168173ffffffffffffffffffffffffffffffffffffffff1603610e9f575f6040517f1e4fbdf7000000000000000000000000000000000000000000000000000000008152600401610e9691906111e3565b60405180910390fd5b610ea881610fb7565b50565b60035481565b610f2b838473ffffffffffffffffffffffffffffffffffffffff1663a9059cbb8585604051602401610ee4929190611836565b604051602081830303815290604052915060e01b6020820180517bffffffffffffffffffffffffffffffffffffffffffffffffffffffff8381831617835250505050611078565b505050565b610f38611113565b73ffffffffffffffffffffffffffffffffffffffff16610f56610892565b73ffffffffffffffffffffffffffffffffffffffff1614610fb557610f79611113565b6040517f118cdaa7000000000000000000000000000000000000000000000000000000008152600401610fac91906111e3565b60405180910390fd5b565b5f5f5f9054906101000a900473ffffffffffffffffffffffffffffffffffffffff169050815f5f6101000a81548173ffffffffffffffffffffffffffffffffffffffff021916908373ffffffffffffffffffffffffffffffffffffffff1602179055508173ffffffffffffffffffffffffffffffffffffffff168173ffffffffffffffffffffffffffffffffffffffff167f8be0079c531659141344cd1fd0a4f28419497f9722a3daafe3b4186f6b6457e060405160405180910390a35050565b5f5f60205f8451602086015f885af180611097576040513d5f823e3d81fd5b3d92505f519150505f82146110b05760018114156110cb565b5f8473ffffffffffffffffffffffffffffffffffffffff163b145b1561110d57836040517f5274afe700000000000000000000000000000000000000000000000000000000815260040161110491906111e3565b60405180910390fd5b50505050565b5f33905090565b5f5ffd5b5f73ffffffffffffffffffffffffffffffffffffffff82169050919050565b5f6111478261111e565b9050919050565b6111578161113d565b8114611161575f5ffd5b50565b5f813590506111728161114e565b92915050565b5f6020828403121561118d5761118c61111a565b5b5f61119a84828501611164565b91505092915050565b5f819050919050565b6111b5816111a3565b82525050565b5f6020820190506111ce5f8301846111ac565b92915050565b6111dd8161113d565b82525050565b5f6020820190506111f65f8301846111d4565b92915050565b611205816111a3565b811461120f575f5ffd5b50565b5f81359050611220816111fc565b92915050565b5f6020828403121561123b5761123a61111a565b5b5f61124884828501611212565b91505092915050565b5f82825260208201905092915050565b7f50726573616c653a20616d6f756e7420657272000000000000000000000000005f82015250565b5f611295601383611251565b91506112a082611261565b602082019050919050565b5f6020820190508181035f8301526112c281611289565b9050919050565b7f4e487b71000000000000000000000000000000000000000000000000000000005f52601160045260245ffd5b5f611300826111a3565b915061130b836111a3565b9250828202611319816111a3565b915082820484148315176113305761132f6112c9565b5b5092915050565b5f81519050611345816111fc565b92915050565b5f602082840312156113605761135f61111a565b5b5f61136d84828501611337565b91505092915050565b5f611380826111a3565b915061138b836111a3565b92508282019050808211156113a3576113a26112c9565b5b92915050565b7f50726573616c653a204e6f7420656e6f75676820746f6b656e732072656d61695f8201527f6e00000000000000000000000000000000000000000000000000000000000000602082015250565b5f611403602183611251565b915061140e826113a9565b604082019050919050565b5f6020820190508181035f830152611430816113f7565b9050919050565b5f60408201905061144a5f8301856111ac565b61145760208301846111ac565b9392505050565b7f50726573616c653a20496e76616c69642073616c6520746f6b656e20616464725f8201527f6573730000000000000000000000000000000000000000000000000000000000602082015250565b5f6114b8602383611251565b91506114c38261145e565b604082019050919050565b5f6020820190508181035f8301526114e5816114ac565b9050919050565b7f50726573616c653a204e6f206e65656420746f207570646174650000000000005f82015250565b5f611520601a83611251565b915061152b826114ec565b602082019050919050565b5f6020820190508181035f83015261154d81611514565b9050919050565b7f50726573616c653a204e6f20756e7573656420746f6b656e7320746f207265745f8201527f75726e0000000000000000000000000000000000000000000000000000000000602082015250565b5f6115ae602383611251565b91506115b982611554565b604082019050919050565b5f6020820190508181035f8301526115db816115a2565b9050919050565b7f50726573616c653a2043616e6e6f742072656d6f76652073616c6520746f6b655f8201527f6e00000000000000000000000000000000000000000000000000000000000000602082015250565b5f61163c602183611251565b9150611647826115e2565b604082019050919050565b5f6020820190508181035f83015261166981611630565b9050919050565b7f50726573616c653a204e6f20746f6b656e7320746f2072656d6f7665000000005f82015250565b5f6116a4601c83611251565b91506116af82611670565b602082019050919050565b5f6020820190508181035f8301526116d181611698565b9050919050565b7f50726573616c653a20496e76616c6964206d61726b6574696e672077616c6c655f8201527f7420616464726573730000000000000000000000000000000000000000000000602082015250565b5f611732602983611251565b915061173d826116d8565b604082019050919050565b5f6020820190508181035f83015261175f81611726565b9050919050565b7f50726573616c653a20746f6b656e73506572556e6974206572720000000000005f82015250565b5f61179a601a83611251565b91506117a582611766565b602082019050919050565b5f6020820190508181035f8301526117c78161178e565b9050919050565b7f50726573616c653a204e6f2066756e647320746f20636f6c6c656374000000005f82015250565b5f611802601c83611251565b915061180d826117ce565b602082019050919050565b5f6020820190508181035f83015261182f816117f6565b9050919050565b5f6040820190506118495f8301856111d4565b61185660208301846111ac565b939250505056fea26469706673582212209ab21979d68d220de57533ec5b6bebacc9f47d0de90fc600ed3a70e117f62f9c64736f6c634300081c0033","linkReferences":{}},"methodIdentifiers":{"collectSaleFunds()":"ed6ff01b","marketingWallet()":"75f0a874","owner()":"8da5cb5b","removeWrongTokens(address)":"9415120d","renounceOwnership()":"715018a6","returnUnusedTokens()":"54d6a3b8","saleToken()":"e985e367","tokensPerUnit()":"f8d28768","transferOwnership(address)":"f2fde38b","updateMarketingWallet(address)":"aacebbe3","updateSaleToken(address)":"2a8755ef","updateTokensPerUnit(uint256)":"d06c9a7e","userContribution(address)":"16ad0672"},"id":4}