{"abi":[{"type":"constructor","inputs":[{"name":"_entryPoint","type":"address","internalType":"address"}],"stateMutability":"nonpayable"},{"type":"function","name":"createAccount","inputs":[],"outputs":[{"name":"","type":"address","internalType":"address"}],"stateMutability":"nonpayable"},{"type":"function","name":"entryPoint","inputs":[],"outputs":[{"name":"","type":"address","internalType":"address"}],"stateMutability":"view"},{"type":"event","name":"AccountCreated","inputs":[{"name":"account","type":"address","indexed":true,"internalType":"address"},{"name":"owner","type":"address","indexed":true,"internalType":"address"}],"anonymous":false}],"bytecode":{"object":"0x608060405234801561000f575f5ffd5b506040516129d93803806129d9833981810160405281019061003191906100d4565b805f5f6101000a81548173ffffffffffffffffffffffffffffffffffffffff021916908373ffffffffffffffffffffffffffffffffffffffff160217905550506100ff565b5f5ffd5b5f73ffffffffffffffffffffffffffffffffffffffff82169050919050565b5f6100a38261007a565b9050919050565b6100b381610099565b81146100bd575f5ffd5b50565b5f815190506100ce816100aa565b92915050565b5f602082840312156100e9576100e8610076565b5b5f6100f6848285016100c0565b91505092915050565b6128cd8061010c5f395ff3fe608060405234801561000f575f5ffd5b5060043610610034575f3560e01c80639dca362f14610038578063b0d691fe14610056575b5f5ffd5b610040610074565b60405161004d9190610240565b60405180910390f35b61005e6101d0565b60405161006b9190610240565b60405180910390f35b5f5f5f5f9054906101000a900473ffffffffffffffffffffffffffffffffffffffff166040516100a3906101f4565b6100ad9190610240565b604051809103905ff0801580156100c6573d5f5f3e3d5ffd5b5090508073ffffffffffffffffffffffffffffffffffffffff1663f2fde38b5f5f9054906101000a900473ffffffffffffffffffffffffffffffffffffffff166040518263ffffffff1660e01b81526004016101229190610240565b5f604051808303815f87803b158015610139575f5ffd5b505af115801561014b573d5f5f3e3d5ffd5b505050505f5f9054906101000a900473ffffffffffffffffffffffffffffffffffffffff1673ffffffffffffffffffffffffffffffffffffffff168173ffffffffffffffffffffffffffffffffffffffff167fac631f3001b55ea1509cf3d7e74898f85392a61a76e8149181ae1259622dabc860405160405180910390a38091505090565b5f5f9054906101000a900473ffffffffffffffffffffffffffffffffffffffff1681565b61263e8061025a83390190565b5f73ffffffffffffffffffffffffffffffffffffffff82169050919050565b5f61022a82610201565b9050919050565b61023a81610220565b82525050565b5f6020820190506102535f830184610231565b9291505056fe608060405234801561000f575f5ffd5b5060405161263e38038061263e8339818101604052810190610031919061021e565b335f73ffffffffffffffffffffffffffffffffffffffff168173ffffffffffffffffffffffffffffffffffffffff16036100a2575f6040517f1e4fbdf70000000000000000000000000000000000000000000000000000000081526004016100999190610258565b60405180910390fd5b6100b1816100ff60201b60201c565b508060015f6101000a81548173ffffffffffffffffffffffffffffffffffffffff021916908373ffffffffffffffffffffffffffffffffffffffff1602179055504260058190555050610271565b5f5f5f9054906101000a900473ffffffffffffffffffffffffffffffffffffffff169050815f5f6101000a81548173ffffffffffffffffffffffffffffffffffffffff021916908373ffffffffffffffffffffffffffffffffffffffff1602179055508173ffffffffffffffffffffffffffffffffffffffff168173ffffffffffffffffffffffffffffffffffffffff167f8be0079c531659141344cd1fd0a4f28419497f9722a3daafe3b4186f6b6457e060405160405180910390a35050565b5f5ffd5b5f73ffffffffffffffffffffffffffffffffffffffff82169050919050565b5f6101ed826101c4565b9050919050565b6101fd816101e3565b8114610207575f5ffd5b50565b5f81519050610218816101f4565b92915050565b5f60208284031215610233576102326101c0565b5b5f6102408482850161020a565b91505092915050565b610252816101e3565b82525050565b5f60208201905061026b5f830184610249565b92915050565b6123c08061027e5f395ff3fe60806040526004361061010c575f3560e01c80637f76b22311610094578063b0d691fe11610063578063b0d691fe146102e1578063dc1724371461030b578063e0af5f6a14610333578063f2fde38b1461035b578063f6b7d67a146103835761010d565b80637f76b2231461023857806386478cf4146102775780638da5cb5b1461028d5780639ec86276146102b75761010d565b80634f2e1ccf116100db5780634f2e1ccf1461017b5780635bbcbaf8146101a557806361054bc7146101cf5780636914f0411461020c578063715018a6146102225761010d565b8063183ff0851461010f5780634003fcc614610125578063428484891461013b5780634d17213a146101655761010d565b5b005b34801561011a575f5ffd5b506101236103ab565b005b348015610130575f5ffd5b5061013961040a565b005b348015610146575f5ffd5b5061014f61048f565b60405161015c919061175d565b60405180910390f35b348015610170575f5ffd5b50610179610495565b005b348015610186575f5ffd5b5061018f6107c7565b60405161019c91906117b5565b60405180910390f35b3480156101b0575f5ffd5b506101b96107ec565b6040516101c6919061175d565b60405180910390f35b3480156101da575f5ffd5b506101f560048036038101906101f09190611800565b61082d565b60405161020392919061182b565b60405180910390f35b348015610217575f5ffd5b5061022061087b565b005b34801561022d575f5ffd5b50610236610b30565b005b348015610243575f5ffd5b5061025e6004803603810190610259919061187c565b610b43565b60405161026e94939291906118a7565b60405180910390f35b348015610282575f5ffd5b5061028b610bad565b005b348015610298575f5ffd5b506102a1610dce565b6040516102ae91906117b5565b60405180910390f35b3480156102c2575f5ffd5b506102cb610df5565b6040516102d8919061175d565b60405180910390f35b3480156102ec575f5ffd5b506102f5610dfb565b60405161030291906117b5565b60405180910390f35b348015610316575f5ffd5b50610331600480360381019061032c919061194b565b610e20565b005b34801561033e575f5ffd5b50610359600480360381019061035491906119f7565b610fe4565b005b348015610366575f5ffd5b50610381600480360381019061037c919061187c565b6110f6565b005b34801561038e575f5ffd5b506103a960048036038101906103a49190611a47565b61117a565b005b6103b36113cc565b426005819055503373ffffffffffffffffffffffffffffffffffffffff167fa864a8b988e604bb05d6ce75d53efabb5620c45b15380b7bd0c51dcfa71dda0342604051610400919061175d565b60405180910390a2565b6104126113cc565b60035f6101000a81549073ffffffffffffffffffffffffffffffffffffffff021916905560065f61044391906116e1565b5f6004819055503373ffffffffffffffffffffffffffffffffffffffff167fff6950b912477fc915c5ada900c173d76b92801a504d215811e9b36198e52b1660405160405180910390a2565b60055481565b5f60025f3373ffffffffffffffffffffffffffffffffffffffff1673ffffffffffffffffffffffffffffffffffffffff1681526020019081526020015f206040518060800160405290815f82015f9054906101000a900473ffffffffffffffffffffffffffffffffffffffff1673ffffffffffffffffffffffffffffffffffffffff1673ffffffffffffffffffffffffffffffffffffffff1681526020016001820154815260200160028201548152602001600382015f9054906101000a900473ffffffffffffffffffffffffffffffffffffffff1673ffffffffffffffffffffffffffffffffffffffff1673ffffffffffffffffffffffffffffffffffffffff168152505090505f73ffffffffffffffffffffffffffffffffffffffff16815f015173ffffffffffffffffffffffffffffffffffffffff160361060e576040517f08c379a000000000000000000000000000000000000000000000000000000000815260040161060590611b05565b60405180910390fd5b8060400151421015610655576040517f08c379a000000000000000000000000000000000000000000000000000000000815260040161064c90611b6d565b60405180910390fd5b5f73ffffffffffffffffffffffffffffffffffffffff16816060015173ffffffffffffffffffffffffffffffffffffffff16036106a25761069d815f01518260200151611453565b6106b9565b6106b88160600151825f015183602001516114de565b5b805f015173ffffffffffffffffffffffffffffffffffffffff163373ffffffffffffffffffffffffffffffffffffffff167fee7a1b3f7bb90f6c06fc3eabb1e3dd80eb6ae9a9e813f72c0c856df3a111e8ad8360200151846060015160405161072392919061182b565b60405180910390a360025f3373ffffffffffffffffffffffffffffffffffffffff1673ffffffffffffffffffffffffffffffffffffffff1681526020019081526020015f205f5f82015f6101000a81549073ffffffffffffffffffffffffffffffffffffffff0219169055600182015f9055600282015f9055600382015f6101000a81549073ffffffffffffffffffffffffffffffffffffffff0219169055505050565b60035f9054906101000a900473ffffffffffffffffffffffffffffffffffffffff1681565b5f6004546005546107fd9190611bb8565b42111561080c575f905061082a565b4260045460055461081d9190611bb8565b6108279190611beb565b90505b90565b6006818154811061083c575f80fd5b905f5260205f2090600202015f91509050805f015490806001015f9054906101000a900473ffffffffffffffffffffffffffffffffffffffff16905082565b60045460055461088b9190611bb8565b42116108cc576040517f08c379a00000000000000000000000000000000000000000000000000000000081526004016108c390611c68565b60405180910390fd5b5f73ffffffffffffffffffffffffffffffffffffffff1660035f9054906101000a900473ffffffffffffffffffffffffffffffffffffffff1673ffffffffffffffffffffffffffffffffffffffff160361095b576040517f08c379a000000000000000000000000000000000000000000000000000000000815260040161095290611cd0565b60405180910390fd5b5f5f90505b600680549050811015610aa5575f6006828154811061098257610981611cee565b5b905f5260205f2090600202016040518060400160405290815f8201548152602001600182015f9054906101000a900473ffffffffffffffffffffffffffffffffffffffff1673ffffffffffffffffffffffffffffffffffffffff1673ffffffffffffffffffffffffffffffffffffffff168152505090505f73ffffffffffffffffffffffffffffffffffffffff16816020015173ffffffffffffffffffffffffffffffffffffffff1603610a6357610a5e60035f9054906101000a900473ffffffffffffffffffffffffffffffffffffffff16825f0151611453565b610a97565b610a96816020015160035f9054906101000a900473ffffffffffffffffffffffffffffffffffffffff16835f01516114de565b5b508080600101915050610960565b5060035f9054906101000a900473ffffffffffffffffffffffffffffffffffffffff1673ffffffffffffffffffffffffffffffffffffffff163373ffffffffffffffffffffffffffffffffffffffff167f6f47c6e60c9511cae1bf476f82798fa25d2437113bbb392956411e74ab44613c475f604051610b2692919061182b565b60405180910390a3565b610b386113cc565b610b415f611619565b565b6002602052805f5260405f205f91509050805f015f9054906101000a900473ffffffffffffffffffffffffffffffffffffffff1690806001015490806002015490806003015f9054906101000a900473ffffffffffffffffffffffffffffffffffffffff16905084565b610bb56113cc565b5f73ffffffffffffffffffffffffffffffffffffffff1660025f3373ffffffffffffffffffffffffffffffffffffffff1673ffffffffffffffffffffffffffffffffffffffff1681526020019081526020015f205f015f9054906101000a900473ffffffffffffffffffffffffffffffffffffffff1673ffffffffffffffffffffffffffffffffffffffff1603610c81576040517f08c379a0000000000000000000000000000000000000000000000000000000008152600401610c7890611d65565b60405180910390fd5b5f60025f3373ffffffffffffffffffffffffffffffffffffffff1673ffffffffffffffffffffffffffffffffffffffff1681526020019081526020015f206003015f9054906101000a900473ffffffffffffffffffffffffffffffffffffffff16905060025f3373ffffffffffffffffffffffffffffffffffffffff1673ffffffffffffffffffffffffffffffffffffffff1681526020019081526020015f205f5f82015f6101000a81549073ffffffffffffffffffffffffffffffffffffffff0219169055600182015f9055600282015f9055600382015f6101000a81549073ffffffffffffffffffffffffffffffffffffffff021916905550503373ffffffffffffffffffffffffffffffffffffffff167fc58dc84fb736e96be8167b15fab3396c4eb07abece35a231c503824af666e25882604051610dc391906117b5565b60405180910390a250565b5f5f5f9054906101000a900473ffffffffffffffffffffffffffffffffffffffff16905090565b60045481565b60015f9054906101000a900473ffffffffffffffffffffffffffffffffffffffff1681565b610e286113cc565b5f73ffffffffffffffffffffffffffffffffffffffff168473ffffffffffffffffffffffffffffffffffffffff1603610e96576040517f08c379a0000000000000000000000000000000000000000000000000000000008152600401610e8d90611dcd565b60405180910390fd5b5f8311610ed8576040517f08c379a0000000000000000000000000000000000000000000000000000000008152600401610ecf90611e5b565b60405180910390fd5b5f8282905011610f1d576040517f08c379a0000000000000000000000000000000000000000000000000000000008152600401610f1490611ee9565b60405180910390fd5b8360035f6101000a81548173ffffffffffffffffffffffffffffffffffffffff021916908373ffffffffffffffffffffffffffffffffffffffff1602179055508260048190555060065f610f7191906116e1565b5f5f90505b82829050811015610fdd576006838383818110610f9657610f95611cee565b5b905060400201908060018154018082558091505060019003905f5260205f2090600202015f909190919091508181610fce91906120bb565b50508080600101915050610f76565b5050505050565b610fec6113cc565b5f73ffffffffffffffffffffffffffffffffffffffff168373ffffffffffffffffffffffffffffffffffffffff160361105a576040517f08c379a000000000000000000000000000000000000000000000000000000000815260040161105190611dcd565b60405180910390fd5b5f821161109c576040517f08c379a000000000000000000000000000000000000000000000000000000000815260040161109390612113565b60405180910390fd5b5f73ffffffffffffffffffffffffffffffffffffffff168173ffffffffffffffffffffffffffffffffffffffff16036110de576110d98383611453565b6110ea565b6110e98184846114de565b5b42600581905550505050565b6110fe6113cc565b5f73ffffffffffffffffffffffffffffffffffffffff168173ffffffffffffffffffffffffffffffffffffffff160361116e575f6040517f1e4fbdf700000000000000000000000000000000000000000000000000000000815260040161116591906117b5565b60405180910390fd5b61117781611619565b50565b6111826113cc565b4282116111c4576040517f08c379a00000000000000000000000000000000000000000000000000000000081526004016111bb906121a1565b60405180910390fd5b5f73ffffffffffffffffffffffffffffffffffffffff168473ffffffffffffffffffffffffffffffffffffffff1603611232576040517f08c379a000000000000000000000000000000000000000000000000000000000815260040161122990611dcd565b60405180910390fd5b60405180608001604052808573ffffffffffffffffffffffffffffffffffffffff1681526020018481526020018381526020018273ffffffffffffffffffffffffffffffffffffffff1681525060025f3373ffffffffffffffffffffffffffffffffffffffff1673ffffffffffffffffffffffffffffffffffffffff1681526020019081526020015f205f820151815f015f6101000a81548173ffffffffffffffffffffffffffffffffffffffff021916908373ffffffffffffffffffffffffffffffffffffffff16021790555060208201518160010155604082015181600201556060820151816003015f6101000a81548173ffffffffffffffffffffffffffffffffffffffff021916908373ffffffffffffffffffffffffffffffffffffffff1602179055509050508373ffffffffffffffffffffffffffffffffffffffff163373ffffffffffffffffffffffffffffffffffffffff167f13fd8df7e5988e6664abf7a78ac75e5cc02901b6ab80eb44e1593ad59cb2d1088585856040516113be939291906121bf565b60405180910390a350505050565b6113d46116da565b73ffffffffffffffffffffffffffffffffffffffff166113f2610dce565b73ffffffffffffffffffffffffffffffffffffffff1614611451576114156116da565b6040517f118cdaa700000000000000000000000000000000000000000000000000000000815260040161144891906117b5565b60405180910390fd5b565b80471015611496576040517f08c379a000000000000000000000000000000000000000000000000000000000815260040161148d9061223e565b60405180910390fd5b8173ffffffffffffffffffffffffffffffffffffffff166108fc8290811502906040515f60405180830381858888f193505050501580156114d9573d5f5f3e3d5ffd5b505050565b808373ffffffffffffffffffffffffffffffffffffffff166370a08231306040518263ffffffff1660e01b815260040161151891906117b5565b602060405180830381865afa158015611533573d5f5f3e3d5ffd5b505050506040513d601f19601f820116820180604052508101906115579190612270565b1015611598576040517f08c379a000000000000000000000000000000000000000000000000000000000815260040161158f906122e5565b60405180910390fd5b8273ffffffffffffffffffffffffffffffffffffffff1663a9059cbb83836040518363ffffffff1660e01b81526004016115d3929190612303565b6020604051808303815f875af11580156115ef573d5f5f3e3d5ffd5b505050506040513d601f19601f82011682018060405250810190611613919061235f565b50505050565b5f5f5f9054906101000a900473ffffffffffffffffffffffffffffffffffffffff169050815f5f6101000a81548173ffffffffffffffffffffffffffffffffffffffff021916908373ffffffffffffffffffffffffffffffffffffffff1602179055508173ffffffffffffffffffffffffffffffffffffffff168173ffffffffffffffffffffffffffffffffffffffff167f8be0079c531659141344cd1fd0a4f28419497f9722a3daafe3b4186f6b6457e060405160405180910390a35050565b5f33905090565b5080545f8255600202905f5260205f20908101906116ff9190611702565b50565b5b80821115611741575f5f82015f9055600182015f6101000a81549073ffffffffffffffffffffffffffffffffffffffff021916905550600201611703565b5090565b5f819050919050565b61175781611745565b82525050565b5f6020820190506117705f83018461174e565b92915050565b5f73ffffffffffffffffffffffffffffffffffffffff82169050919050565b5f61179f82611776565b9050919050565b6117af81611795565b82525050565b5f6020820190506117c85f8301846117a6565b92915050565b5f5ffd5b5f5ffd5b6117df81611745565b81146117e9575f5ffd5b50565b5f813590506117fa816117d6565b92915050565b5f60208284031215611815576118146117ce565b5b5f611822848285016117ec565b91505092915050565b5f60408201905061183e5f83018561174e565b61184b60208301846117a6565b9392505050565b61185b81611795565b8114611865575f5ffd5b50565b5f8135905061187681611852565b92915050565b5f60208284031215611891576118906117ce565b5b5f61189e84828501611868565b91505092915050565b5f6080820190506118ba5f8301876117a6565b6118c7602083018661174e565b6118d4604083018561174e565b6118e160608301846117a6565b95945050505050565b5f5ffd5b5f5ffd5b5f5ffd5b5f5f83601f84011261190b5761190a6118ea565b5b8235905067ffffffffffffffff811115611928576119276118ee565b5b602083019150836040820283011115611944576119436118f2565b5b9250929050565b5f5f5f5f60608587031215611963576119626117ce565b5b5f61197087828801611868565b9450506020611981878288016117ec565b935050604085013567ffffffffffffffff8111156119a2576119a16117d2565b5b6119ae878288016118f6565b925092505092959194509250565b5f6119c682611776565b9050919050565b6119d6816119bc565b81146119e0575f5ffd5b50565b5f813590506119f1816119cd565b92915050565b5f5f5f60608486031215611a0e57611a0d6117ce565b5b5f611a1b868287016119e3565b9350506020611a2c868287016117ec565b9250506040611a3d86828701611868565b9150509250925092565b5f5f5f5f60808587031215611a5f57611a5e6117ce565b5b5f611a6c87828801611868565b9450506020611a7d878288016117ec565b9350506040611a8e878288016117ec565b9250506060611a9f87828801611868565b91505092959194509250565b5f82825260208201905092915050565b7f4e6f207472616e73666572207363686564756c656400000000000000000000005f82015250565b5f611aef601583611aab565b9150611afa82611abb565b602082019050919050565b5f6020820190508181035f830152611b1c81611ae3565b9050919050565b7f5472616e73666572206973206c6f636b656400000000000000000000000000005f82015250565b5f611b57601283611aab565b9150611b6282611b23565b602082019050919050565b5f6020820190508181035f830152611b8481611b4b565b9050919050565b7f4e487b71000000000000000000000000000000000000000000000000000000005f52601160045260245ffd5b5f611bc282611745565b9150611bcd83611745565b9250828201905080821115611be557611be4611b8b565b5b92915050565b5f611bf582611745565b9150611c0083611745565b9250828203905081811115611c1857611c17611b8b565b5b92915050565b7f496e6163746976697479207468726573686f6c64206e6f74206d6574000000005f82015250565b5f611c52601c83611aab565b9150611c5d82611c1e565b602082019050919050565b5f6020820190508181035f830152611c7f81611c46565b9050919050565b7f446561646d616e20726563697069656e74206e6f7420736574000000000000005f82015250565b5f611cba601983611aab565b9150611cc582611c86565b602082019050919050565b5f6020820190508181035f830152611ce781611cae565b9050919050565b7f4e487b71000000000000000000000000000000000000000000000000000000005f52603260045260245ffd5b7f4e6f207472616e7366657220746f2063616e63656c00000000000000000000005f82015250565b5f611d4f601583611aab565b9150611d5a82611d1b565b602082019050919050565b5f6020820190508181035f830152611d7c81611d43565b9050919050565b7f496e76616c696420726563697069656e740000000000000000000000000000005f82015250565b5f611db7601183611aab565b9150611dc282611d83565b602082019050919050565b5f6020820190508181035f830152611de481611dab565b9050919050565b7f5468726573686f6c64206d7573742062652067726561746572207468616e207a5f8201527f65726f0000000000000000000000000000000000000000000000000000000000602082015250565b5f611e45602383611aab565b9150611e5082611deb565b604082019050919050565b5f6020820190508181035f830152611e7281611e39565b9050919050565b7f4174206c65617374206f6e65207472616e73666572206d7573742062652073655f8201527f7400000000000000000000000000000000000000000000000000000000000000602082015250565b5f611ed3602183611aab565b9150611ede82611e79565b604082019050919050565b5f6020820190508181035f830152611f0081611ec7565b9050919050565b5f8135611f13816117d6565b80915050919050565b5f815f1b9050919050565b5f7fffffffffffffffffffffffffffffffffffffffffffffffffffffffffffffffff611f5284611f1c565b9350801983169250808416831791505092915050565b5f819050919050565b5f611f8b611f86611f8184611745565b611f68565b611745565b9050919050565b5f819050919050565b611fa482611f71565b611fb7611fb082611f92565b8354611f27565b8255505050565b5f8135611fca81611852565b80915050919050565b5f73ffffffffffffffffffffffffffffffffffffffff611ff284611f1c565b9350801983169250808416831791505092915050565b5f61202261201d61201884611776565b611f68565b611776565b9050919050565b5f61203382612008565b9050919050565b5f61204482612029565b9050919050565b5f819050919050565b61205d8261203a565b6120706120698261204b565b8354611fd3565b8255505050565b5f81015f83018061208781611f07565b90506120938184611f9b565b5050506001810160208301806120a881611fbe565b90506120b48184612054565b5050505050565b6120c58282612077565b5050565b7f496e76616c696420616d6f756e740000000000000000000000000000000000005f82015250565b5f6120fd600e83611aab565b9150612108826120c9565b602082019050919050565b5f6020820190508181035f83015261212a816120f1565b9050919050565b7f556e6c6f636b2074696d65206d75737420626520696e207468652066757475725f8201527f6500000000000000000000000000000000000000000000000000000000000000602082015250565b5f61218b602183611aab565b915061219682612131565b604082019050919050565b5f6020820190508181035f8301526121b88161217f565b9050919050565b5f6060820190506121d25f83018661174e565b6121df602083018561174e565b6121ec60408301846117a6565b949350505050565b7f496e73756666696369656e74204554482062616c616e636500000000000000005f82015250565b5f612228601883611aab565b9150612233826121f4565b602082019050919050565b5f6020820190508181035f8301526122558161221c565b9050919050565b5f8151905061226a816117d6565b92915050565b5f60208284031215612285576122846117ce565b5b5f6122928482850161225c565b91505092915050565b7f496e73756666696369656e7420746f6b656e2062616c616e63650000000000005f82015250565b5f6122cf601a83611aab565b91506122da8261229b565b602082019050919050565b5f6020820190508181035f8301526122fc816122c3565b9050919050565b5f6040820190506123165f8301856117a6565b612323602083018461174e565b9392505050565b5f8115159050919050565b61233e8161232a565b8114612348575f5ffd5b50565b5f8151905061235981612335565b92915050565b5f60208284031215612374576123736117ce565b5b5f6123818482850161234b565b9150509291505056fea2646970667358221220c3132fb954cd9b313affa6153e482eb9aa799c0fda1f448efc95edccee2642ba64736f6c634300081c0033a264697066735822122004de2190cce6a21be15acfff24ec9f6eb2a9294fc55a28b77373db7ed165dabd64736f6c634300081c0033","linkReferences":{}},"methodIdentifiers":{"createAccount()":"9dca362f","entryPoint()":"b0d691fe"},"id":0}