{"abi":[{"type":"constructor","inputs":[],"stateMutability":"payable"},{"type":"function","name":"authorizeBundler","inputs":[{"name":"newBundler","type":"address","internalType":"address"}],"outputs":[],"stateMutability":"payable"},{"type":"function","name":"authorizedBundler","inputs":[],"outputs":[{"name":"","type":"address","internalType":"address"}],"stateMutability":"view"},{"type":"function","name":"handleOps","inputs":[{"name":"ops","type":"tuple[]","internalType":"struct EntryPoint.UserOperation[]","components":[{"name":"sender","type":"address","internalType":"address"},{"name":"recipient","type":"address","internalType":"address payable"},{"name":"amount","type":"uint256","internalType":"uint256"},{"name":"tokenAddress","type":"address","internalType":"address"}]},{"name":"biometricHash","type":"bytes32","internalType":"bytes32"}],"outputs":[],"stateMutability":"payable"},{"type":"function","name":"owner","inputs":[],"outputs":[{"name":"","type":"address","internalType":"address"}],"stateMutability":"view"},{"type":"function","name":"registerBiometric","inputs":[{"name":"wallet","type":"address","internalType":"address"},{"name":"biometricHash","type":"bytes32","internalType":"bytes32"}],"outputs":[],"stateMutability":"payable"},{"type":"function","name":"renounceOwnership","inputs":[],"outputs":[],"stateMutability":"nonpayable"},{"type":"function","name":"transferOwnership","inputs":[{"name":"newOwner","type":"address","internalType":"address"}],"outputs":[],"stateMutability":"nonpayable"},{"type":"function","name":"walletBiometrics","inputs":[{"name":"","type":"address","internalType":"address"},{"name":"","type":"bytes32","internalType":"bytes32"}],"outputs":[{"name":"","type":"bool","internalType":"bool"}],"stateMutability":"view"},{"type":"event","name":"BiometricRegistered","inputs":[{"name":"wallet","type":"address","indexed":true,"internalType":"address"},{"name":"biometricHash","type":"bytes32","indexed":false,"internalType":"bytes32"}],"anonymous":false},{"type":"event","name":"BundlerUpdated","inputs":[{"name":"oldBundler","type":"address","indexed":true,"internalType":"address"},{"name":"newBundler","type":"address","indexed":true,"internalType":"address"}],"anonymous":false},{"type":"event","name":"OperationExecuted","inputs":[{"name":"sender","type":"address","indexed":true,"internalType":"address"},{"name":"recipient","type":"address","indexed":true,"internalType":"address"},{"name":"amount","type":"uint256","indexed":false,"internalType":"uint256"},{"name":"tokenAddress","type":"address","indexed":true,"internalType":"address"}],"anonymous":false},{"type":"event","name":"OwnershipTransferred","inputs":[{"name":"previousOwner","type":"address","indexed":true,"internalType":"address"},{"name":"newOwner","type":"address","indexed":true,"internalType":"address"}],"anonymous":false},{"type":"error","name":"OwnableInvalidOwner","inputs":[{"name":"owner","type":"address","internalType":"address"}]},{"type":"error","name":"OwnableUnauthorizedAccount","inputs":[{"name":"account","type":"address","internalType":"address"}]}],"bytecode":{"object":"0x6080604052335f73ffffffffffffffffffffffffffffffffffffffff168173ffffffffffffffffffffffffffffffffffffffff1603610075575f6040517f1e4fbdf700000000000000000000000000000000000000000000000000000000815260040161006c91906101ca565b60405180910390fd5b610084816100ca60201b60201c565b503360025f6101000a81548173ffffffffffffffffffffffffffffffffffffffff021916908373ffffffffffffffffffffffffffffffffffffffff1602179055506101e3565b5f5f5f9054906101000a900473ffffffffffffffffffffffffffffffffffffffff169050815f5f6101000a81548173ffffffffffffffffffffffffffffffffffffffff021916908373ffffffffffffffffffffffffffffffffffffffff1602179055508173ffffffffffffffffffffffffffffffffffffffff168173ffffffffffffffffffffffffffffffffffffffff167f8be0079c531659141344cd1fd0a4f28419497f9722a3daafe3b4186f6b6457e060405160405180910390a35050565b5f73ffffffffffffffffffffffffffffffffffffffff82169050919050565b5f6101b48261018b565b9050919050565b6101c4816101aa565b82525050565b5f6020820190506101dd5f8301846101bb565b92915050565b6110c3806101f05f395ff3fe60806040526004361061007a575f3560e01c8063ade595a31161004d578063ade595a314610104578063d9e1400514610120578063dc2f1e1f1461015c578063f2fde38b146101785761007a565b8063299d88261461007e57806355e7fc06146100a8578063715018a6146100c45780638da5cb5b146100da575b5f5ffd5b348015610089575f5ffd5b506100926101a0565b60405161009f919061098e565b60405180910390f35b6100c260048036038101906100bd9190610a15565b6101c5565b005b3480156100cf575f5ffd5b506100d8610309565b005b3480156100e5575f5ffd5b506100ee61031c565b6040516100fb919061098e565b60405180910390f35b61011e60048036038101906101199190610c8a565b610343565b005b34801561012b575f5ffd5b5061014660048036038101906101419190610a15565b61059b565b6040516101539190610cfe565b60405180910390f35b61017660048036038101906101719190610d17565b6105c5565b005b348015610183575f5ffd5b5061019e60048036038101906101999190610d17565b61071a565b005b60025f9054906101000a900473ffffffffffffffffffffffffffffffffffffffff1681565b3373ffffffffffffffffffffffffffffffffffffffff1660025f9054906101000a900473ffffffffffffffffffffffffffffffffffffffff1673ffffffffffffffffffffffffffffffffffffffff1614610254576040517f08c379a000000000000000000000000000000000000000000000000000000000815260040161024b90610dc2565b60405180910390fd5b6001805f8473ffffffffffffffffffffffffffffffffffffffff1673ffffffffffffffffffffffffffffffffffffffff1681526020019081526020015f205f8381526020019081526020015f205f6101000a81548160ff0219169083151502179055508173ffffffffffffffffffffffffffffffffffffffff167f40e856c8d051b39914239d4b5822e98e30d4eae80189b4205fac3b60e0be6746826040516102fd9190610def565b60405180910390a25050565b61031161079e565b61031a5f610825565b565b5f5f5f9054906101000a900473ffffffffffffffffffffffffffffffffffffffff16905090565b3373ffffffffffffffffffffffffffffffffffffffff1660025f9054906101000a900473ffffffffffffffffffffffffffffffffffffffff1673ffffffffffffffffffffffffffffffffffffffff16146103d2576040517f08c379a00000000000000000000000000000000000000000000000000000000081526004016103c990610e78565b60405180910390fd5b5f5f90505b8251811015610596575f8382815181106103f4576103f3610e96565b5b6020026020010151905061040b815f0151846108e6565b61044a576040517f08c379a000000000000000000000000000000000000000000000000000000000815260040161044190610f0d565b60405180910390fd5b805f015173ffffffffffffffffffffffffffffffffffffffff1663e0af5f6a8260200151836040015184606001516040518463ffffffff1660e01b815260040161049693929190610f49565b5f604051808303815f87803b1580156104ad575f5ffd5b505af19250505080156104be575060015b6104fd576040517f08c379a00000000000000000000000000000000000000000000000000000000081526004016104f490610fc8565b60405180910390fd5b806060015173ffffffffffffffffffffffffffffffffffffffff16816020015173ffffffffffffffffffffffffffffffffffffffff16825f015173ffffffffffffffffffffffffffffffffffffffff167f7042928a71fff795783e5451f2c61ead0f296950944c9a6e65975973721ec05184604001516040516105809190610fe6565b60405180910390a45080806001019150506103d7565b505050565b6001602052815f5260405f20602052805f5260405f205f915091509054906101000a900460ff1681565b6105cd61079e565b3373ffffffffffffffffffffffffffffffffffffffff1660025f9054906101000a900473ffffffffffffffffffffffffffffffffffffffff1673ffffffffffffffffffffffffffffffffffffffff161461065c576040517f08c379a00000000000000000000000000000000000000000000000000000000081526004016106539061106f565b60405180910390fd5b8060025f6101000a81548173ffffffffffffffffffffffffffffffffffffffff021916908373ffffffffffffffffffffffffffffffffffffffff1602179055508073ffffffffffffffffffffffffffffffffffffffff1660025f9054906101000a900473ffffffffffffffffffffffffffffffffffffffff1673ffffffffffffffffffffffffffffffffffffffff167fe7363bb52a308ee3dca5b5990e21b769fa928be6ec118599bd5ea05bd457288260405160405180910390a350565b61072261079e565b5f73ffffffffffffffffffffffffffffffffffffffff168173ffffffffffffffffffffffffffffffffffffffff1603610792575f6040517f1e4fbdf7000000000000000000000000000000000000000000000000000000008152600401610789919061098e565b60405180910390fd5b61079b81610825565b50565b6107a6610948565b73ffffffffffffffffffffffffffffffffffffffff166107c461031c565b73ffffffffffffffffffffffffffffffffffffffff1614610823576107e7610948565b6040517f118cdaa700000000000000000000000000000000000000000000000000000000815260040161081a919061098e565b60405180910390fd5b565b5f5f5f9054906101000a900473ffffffffffffffffffffffffffffffffffffffff169050815f5f6101000a81548173ffffffffffffffffffffffffffffffffffffffff021916908373ffffffffffffffffffffffffffffffffffffffff1602179055508173ffffffffffffffffffffffffffffffffffffffff168173ffffffffffffffffffffffffffffffffffffffff167f8be0079c531659141344cd1fd0a4f28419497f9722a3daafe3b4186f6b6457e060405160405180910390a35050565b5f60015f8473ffffffffffffffffffffffffffffffffffffffff1673ffffffffffffffffffffffffffffffffffffffff1681526020019081526020015f205f8381526020019081526020015f205f9054906101000a900460ff16905092915050565b5f33905090565b5f73ffffffffffffffffffffffffffffffffffffffff82169050919050565b5f6109788261094f565b9050919050565b6109888161096e565b82525050565b5f6020820190506109a15f83018461097f565b92915050565b5f604051905090565b5f5ffd5b5f5ffd5b6109c18161096e565b81146109cb575f5ffd5b50565b5f813590506109dc816109b8565b92915050565b5f819050919050565b6109f4816109e2565b81146109fe575f5ffd5b50565b5f81359050610a0f816109eb565b92915050565b5f5f60408385031215610a2b57610a2a6109b0565b5b5f610a38858286016109ce565b9250506020610a4985828601610a01565b9150509250929050565b5f5ffd5b5f601f19601f8301169050919050565b7f4e487b71000000000000000000000000000000000000000000000000000000005f52604160045260245ffd5b610a9d82610a57565b810181811067ffffffffffffffff82111715610abc57610abb610a67565b5b80604052505050565b5f610ace6109a7565b9050610ada8282610a94565b919050565b5f67ffffffffffffffff821115610af957610af8610a67565b5b602082029050602081019050919050565b5f5ffd5b5f5ffd5b5f610b1c8261094f565b9050919050565b610b2c81610b12565b8114610b36575f5ffd5b50565b5f81359050610b4781610b23565b92915050565b5f819050919050565b610b5f81610b4d565b8114610b69575f5ffd5b50565b5f81359050610b7a81610b56565b92915050565b5f60808284031215610b9557610b94610b0e565b5b610b9f6080610ac5565b90505f610bae848285016109ce565b5f830152506020610bc184828501610b39565b6020830152506040610bd584828501610b6c565b6040830152506060610be9848285016109ce565b60608301525092915050565b5f610c07610c0284610adf565b610ac5565b90508083825260208201905060808402830185811115610c2a57610c29610b0a565b5b835b81811015610c535780610c3f8882610b80565b845260208401935050608081019050610c2c565b5050509392505050565b5f82601f830112610c7157610c70610a53565b5b8135610c81848260208601610bf5565b91505092915050565b5f5f60408385031215610ca057610c9f6109b0565b5b5f83013567ffffffffffffffff811115610cbd57610cbc6109b4565b5b610cc985828601610c5d565b9250506020610cda85828601610a01565b9150509250929050565b5f8115159050919050565b610cf881610ce4565b82525050565b5f602082019050610d115f830184610cef565b92915050565b5f60208284031215610d2c57610d2b6109b0565b5b5f610d39848285016109ce565b91505092915050565b5f82825260208201905092915050565b7f4f6e6c7920616c6c6f7765642062756e646c65722063616e20726567697374655f8201527f722062696f6d6574726963730000000000000000000000000000000000000000602082015250565b5f610dac602c83610d42565b9150610db782610d52565b604082019050919050565b5f6020820190508181035f830152610dd981610da0565b9050919050565b610de9816109e2565b82525050565b5f602082019050610e025f830184610de0565b92915050565b7f4f6e6c7920616c6c6f7765642062756e646c65722063616e2068616e646c654f5f8201527f7073000000000000000000000000000000000000000000000000000000000000602082015250565b5f610e62602283610d42565b9150610e6d82610e08565b604082019050919050565b5f6020820190508181035f830152610e8f81610e56565b9050919050565b7f4e487b71000000000000000000000000000000000000000000000000000000005f52603260045260245ffd5b7f496e76616c69642062696f6d65747269630000000000000000000000000000005f82015250565b5f610ef7601183610d42565b9150610f0282610ec3565b602082019050919050565b5f6020820190508181035f830152610f2481610eeb565b9050919050565b610f3481610b12565b82525050565b610f4381610b4d565b82525050565b5f606082019050610f5c5f830186610f2b565b610f696020830185610f3a565b610f76604083018461097f565b949350505050565b7f4f7065726174696f6e206661696c656420666f722077616c6c657400000000005f82015250565b5f610fb2601b83610d42565b9150610fbd82610f7e565b602082019050919050565b5f6020820190508181035f830152610fdf81610fa6565b9050919050565b5f602082019050610ff95f830184610f3a565b92915050565b7f4f6e6c79207468652077616c6c6574206f776e65722063616e20617574686f725f8201527f697a652062756e646c6572730000000000000000000000000000000000000000602082015250565b5f611059602c83610d42565b915061106482610fff565b604082019050919050565b5f6020820190508181035f8301526110868161104d565b905091905056fea2646970667358221220f57db0100d9cd4bb95f7add28a27ccb8e446f0f5574381ce5ca565edb634de0564736f6c634300081c0033","linkReferences":{}},"methodIdentifiers":{"authorizeBundler(address)":"dc2f1e1f","authorizedBundler()":"299d8826","handleOps((address,address,uint256,address)[],bytes32)":"ade595a3","owner()":"8da5cb5b","registerBiometric(address,bytes32)":"55e7fc06","renounceOwnership()":"715018a6","transferOwnership(address)":"f2fde38b","walletBiometrics(address,bytes32)":"d9e14005"},"id":3}